{
  "_format": "hh-sol-artifact-1",
  "contractName": "CompanyCard",
  "sourceName": "contracts/CompanyCard.sol",
  "abi": [
    {
      "inputs": [
        {
          "internalType": "string",
          "name": "_name",
          "type": "string"
        },
        {
          "internalType": "string",
          "name": "_symbol",
          "type": "string"
        },
        {
          "internalType": "string",
          "name": "_URI",
          "type": "string"
        },
        {
          "internalType": "address payable",
          "name": "_royaltyReceiver",
          "type": "address"
        }
      ],
      "stateMutability": "nonpayable",
      "type": "constructor"
    },
    {
      "anonymous": false,
      "inputs": [
        {
          "indexed": true,
          "internalType": "address",
          "name": "owner",
          "type": "address"
        },
        {
          "indexed": true,
          "internalType": "address",
          "name": "approved",
          "type": "address"
        },
        {
          "indexed": true,
          "internalType": "uint256",
          "name": "tokenId",
          "type": "uint256"
        }
      ],
      "name": "Approval",
      "type": "event"
    },
    {
      "anonymous": false,
      "inputs": [
        {
          "indexed": true,
          "internalType": "address",
          "name": "owner",
          "type": "address"
        },
        {
          "indexed": true,
          "internalType": "address",
          "name": "operator",
          "type": "address"
        },
        {
          "indexed": false,
          "internalType": "bool",
          "name": "approved",
          "type": "bool"
        }
      ],
      "name": "ApprovalForAll",
      "type": "event"
    },
    {
      "anonymous": false,
      "inputs": [
        {
          "indexed": true,
          "internalType": "address",
          "name": "previousOwner",
          "type": "address"
        },
        {
          "indexed": true,
          "internalType": "address",
          "name": "newOwner",
          "type": "address"
        }
      ],
      "name": "OwnershipTransferred",
      "type": "event"
    },
    {
      "anonymous": false,
      "inputs": [
        {
          "indexed": true,
          "internalType": "bytes32",
          "name": "role",
          "type": "bytes32"
        },
        {
          "indexed": true,
          "internalType": "bytes32",
          "name": "previousAdminRole",
          "type": "bytes32"
        },
        {
          "indexed": true,
          "internalType": "bytes32",
          "name": "newAdminRole",
          "type": "bytes32"
        }
      ],
      "name": "RoleAdminChanged",
      "type": "event"
    },
    {
      "anonymous": false,
      "inputs": [
        {
          "indexed": true,
          "internalType": "bytes32",
          "name": "role",
          "type": "bytes32"
        },
        {
          "indexed": true,
          "internalType": "address",
          "name": "account",
          "type": "address"
        },
        {
          "indexed": true,
          "internalType": "address",
          "name": "sender",
          "type": "address"
        }
      ],
      "name": "RoleGranted",
      "type": "event"
    },
    {
      "anonymous": false,
      "inputs": [
        {
          "indexed": true,
          "internalType": "bytes32",
          "name": "role",
          "type": "bytes32"
        },
        {
          "indexed": true,
          "internalType": "address",
          "name": "account",
          "type": "address"
        },
        {
          "indexed": true,
          "internalType": "address",
          "name": "sender",
          "type": "address"
        }
      ],
      "name": "RoleRevoked",
      "type": "event"
    },
    {
      "anonymous": false,
      "inputs": [
        {
          "indexed": true,
          "internalType": "address",
          "name": "from",
          "type": "address"
        },
        {
          "indexed": true,
          "internalType": "address",
          "name": "to",
          "type": "address"
        },
        {
          "indexed": true,
          "internalType": "uint256",
          "name": "tokenId",
          "type": "uint256"
        }
      ],
      "name": "Transfer",
      "type": "event"
    },
    {
      "inputs": [],
      "name": "AUTH_MINTER",
      "outputs": [
        {
          "internalType": "bytes32",
          "name": "",
          "type": "bytes32"
        }
      ],
      "stateMutability": "view",
      "type": "function"
    },
    {
      "inputs": [],
      "name": "DEFAULT_ADMIN_ROLE",
      "outputs": [
        {
          "internalType": "bytes32",
          "name": "",
          "type": "bytes32"
        }
      ],
      "stateMutability": "view",
      "type": "function"
    },
    {
      "inputs": [
        {
          "internalType": "address",
          "name": "to",
          "type": "address"
        },
        {
          "internalType": "uint256",
          "name": "tokenId",
          "type": "uint256"
        }
      ],
      "name": "approve",
      "outputs": [],
      "stateMutability": "nonpayable",
      "type": "function"
    },
    {
      "inputs": [
        {
          "internalType": "address",
          "name": "owner",
          "type": "address"
        }
      ],
      "name": "balanceOf",
      "outputs": [
        {
          "internalType": "uint256",
          "name": "",
          "type": "uint256"
        }
      ],
      "stateMutability": "view",
      "type": "function"
    },
    {
      "inputs": [
        {
          "internalType": "uint256",
          "name": "tokenId",
          "type": "uint256"
        }
      ],
      "name": "getApproved",
      "outputs": [
        {
          "internalType": "address",
          "name": "",
          "type": "address"
        }
      ],
      "stateMutability": "view",
      "type": "function"
    },
    {
      "inputs": [
        {
          "internalType": "bytes32",
          "name": "role",
          "type": "bytes32"
        }
      ],
      "name": "getRoleAdmin",
      "outputs": [
        {
          "internalType": "bytes32",
          "name": "",
          "type": "bytes32"
        }
      ],
      "stateMutability": "view",
      "type": "function"
    },
    {
      "inputs": [
        {
          "internalType": "bytes32",
          "name": "role",
          "type": "bytes32"
        },
        {
          "internalType": "address",
          "name": "account",
          "type": "address"
        }
      ],
      "name": "grantRole",
      "outputs": [],
      "stateMutability": "nonpayable",
      "type": "function"
    },
    {
      "inputs": [
        {
          "internalType": "bytes32",
          "name": "role",
          "type": "bytes32"
        },
        {
          "internalType": "address",
          "name": "account",
          "type": "address"
        }
      ],
      "name": "hasRole",
      "outputs": [
        {
          "internalType": "bool",
          "name": "",
          "type": "bool"
        }
      ],
      "stateMutability": "view",
      "type": "function"
    },
    {
      "inputs": [
        {
          "internalType": "address",
          "name": "owner",
          "type": "address"
        },
        {
          "internalType": "address",
          "name": "operator",
          "type": "address"
        }
      ],
      "name": "isApprovedForAll",
      "outputs": [
        {
          "internalType": "bool",
          "name": "",
          "type": "bool"
        }
      ],
      "stateMutability": "view",
      "type": "function"
    },
    {
      "inputs": [
        {
          "internalType": "address",
          "name": "to",
          "type": "address"
        }
      ],
      "name": "mint",
      "outputs": [],
      "stateMutability": "nonpayable",
      "type": "function"
    },
    {
      "inputs": [],
      "name": "name",
      "outputs": [
        {
          "internalType": "string",
          "name": "",
          "type": "string"
        }
      ],
      "stateMutability": "view",
      "type": "function"
    },
    {
      "inputs": [],
      "name": "owner",
      "outputs": [
        {
          "internalType": "address",
          "name": "",
          "type": "address"
        }
      ],
      "stateMutability": "view",
      "type": "function"
    },
    {
      "inputs": [
        {
          "internalType": "uint256",
          "name": "tokenId",
          "type": "uint256"
        }
      ],
      "name": "ownerOf",
      "outputs": [
        {
          "internalType": "address",
          "name": "",
          "type": "address"
        }
      ],
      "stateMutability": "view",
      "type": "function"
    },
    {
      "inputs": [],
      "name": "renounceOwnership",
      "outputs": [],
      "stateMutability": "nonpayable",
      "type": "function"
    },
    {
      "inputs": [
        {
          "internalType": "bytes32",
          "name": "role",
          "type": "bytes32"
        },
        {
          "internalType": "address",
          "name": "account",
          "type": "address"
        }
      ],
      "name": "renounceRole",
      "outputs": [],
      "stateMutability": "nonpayable",
      "type": "function"
    },
    {
      "inputs": [
        {
          "internalType": "bytes32",
          "name": "role",
          "type": "bytes32"
        },
        {
          "internalType": "address",
          "name": "account",
          "type": "address"
        }
      ],
      "name": "revokeRole",
      "outputs": [],
      "stateMutability": "nonpayable",
      "type": "function"
    },
    {
      "inputs": [
        {
          "internalType": "uint256",
          "name": "_tokenId",
          "type": "uint256"
        },
        {
          "internalType": "uint256",
          "name": "_salePrice",
          "type": "uint256"
        }
      ],
      "name": "royaltyInfo",
      "outputs": [
        {
          "internalType": "address",
          "name": "receiver",
          "type": "address"
        },
        {
          "internalType": "uint256",
          "name": "royaltyAmount",
          "type": "uint256"
        }
      ],
      "stateMutability": "view",
      "type": "function"
    },
    {
      "inputs": [],
      "name": "royaltyReceiver",
      "outputs": [
        {
          "internalType": "address payable",
          "name": "",
          "type": "address"
        }
      ],
      "stateMutability": "view",
      "type": "function"
    },
    {
      "inputs": [
        {
          "internalType": "address",
          "name": "from",
          "type": "address"
        },
        {
          "internalType": "address",
          "name": "to",
          "type": "address"
        },
        {
          "internalType": "uint256",
          "name": "tokenId",
          "type": "uint256"
        }
      ],
      "name": "safeTransferFrom",
      "outputs": [],
      "stateMutability": "nonpayable",
      "type": "function"
    },
    {
      "inputs": [
        {
          "internalType": "address",
          "name": "from",
          "type": "address"
        },
        {
          "internalType": "address",
          "name": "to",
          "type": "address"
        },
        {
          "internalType": "uint256",
          "name": "tokenId",
          "type": "uint256"
        },
        {
          "internalType": "bytes",
          "name": "_data",
          "type": "bytes"
        }
      ],
      "name": "safeTransferFrom",
      "outputs": [],
      "stateMutability": "nonpayable",
      "type": "function"
    },
    {
      "inputs": [
        {
          "internalType": "address",
          "name": "operator",
          "type": "address"
        },
        {
          "internalType": "bool",
          "name": "approved",
          "type": "bool"
        }
      ],
      "name": "setApprovalForAll",
      "outputs": [],
      "stateMutability": "nonpayable",
      "type": "function"
    },
    {
      "inputs": [
        {
          "internalType": "bytes4",
          "name": "interfaceId",
          "type": "bytes4"
        }
      ],
      "name": "supportsInterface",
      "outputs": [
        {
          "internalType": "bool",
          "name": "",
          "type": "bool"
        }
      ],
      "stateMutability": "view",
      "type": "function"
    },
    {
      "inputs": [],
      "name": "symbol",
      "outputs": [
        {
          "internalType": "string",
          "name": "",
          "type": "string"
        }
      ],
      "stateMutability": "view",
      "type": "function"
    },
    {
      "inputs": [
        {
          "internalType": "uint256",
          "name": "index",
          "type": "uint256"
        }
      ],
      "name": "tokenByIndex",
      "outputs": [
        {
          "internalType": "uint256",
          "name": "",
          "type": "uint256"
        }
      ],
      "stateMutability": "view",
      "type": "function"
    },
    {
      "inputs": [
        {
          "internalType": "address",
          "name": "owner",
          "type": "address"
        },
        {
          "internalType": "uint256",
          "name": "index",
          "type": "uint256"
        }
      ],
      "name": "tokenOfOwnerByIndex",
      "outputs": [
        {
          "internalType": "uint256",
          "name": "",
          "type": "uint256"
        }
      ],
      "stateMutability": "view",
      "type": "function"
    },
    {
      "inputs": [
        {
          "internalType": "uint256",
          "name": "tokenId",
          "type": "uint256"
        }
      ],
      "name": "tokenURI",
      "outputs": [
        {
          "internalType": "string",
          "name": "",
          "type": "string"
        }
      ],
      "stateMutability": "view",
      "type": "function"
    },
    {
      "inputs": [],
      "name": "totalSupply",
      "outputs": [
        {
          "internalType": "uint256",
          "name": "",
          "type": "uint256"
        }
      ],
      "stateMutability": "view",
      "type": "function"
    },
    {
      "inputs": [
        {
          "internalType": "address",
          "name": "from",
          "type": "address"
        },
        {
          "internalType": "address",
          "name": "to",
          "type": "address"
        },
        {
          "internalType": "uint256",
          "name": "tokenId",
          "type": "uint256"
        }
      ],
      "name": "transferFrom",
      "outputs": [],
      "stateMutability": "nonpayable",
      "type": "function"
    },
    {
      "inputs": [
        {
          "internalType": "address",
          "name": "newOwner",
          "type": "address"
        }
      ],
      "name": "transferOwnership",
      "outputs": [],
      "stateMutability": "nonpayable",
      "type": "function"
    },
    {
      "inputs": [
        {
          "internalType": "address payable",
          "name": "_royaltyReceiver",
          "type": "address"
        }
      ],
      "name": "updateRoyalty",
      "outputs": [],
      "stateMutability": "nonpayable",
      "type": "function"
    },
    {
      "inputs": [
        {
          "internalType": "string",
          "name": "_newURI",
          "type": "string"
        }
      ],
      "name": "updateURI",
      "outputs": [],
      "stateMutability": "nonpayable",
      "type": "function"
    }
  ],
  "bytecode": "0x60806040523480156200001157600080fd5b506040516200259638038062002596833981016040819052620000349162000371565b8351849084906200004d906000906020850190620001fe565b50805162000063906001906020840190620001fe565b505050620000806200007a620000f460201b60201c565b620000f8565b6200008d6000336200014a565b620000b97fc74bd246472b6356a44a0c69308e53b2a8fba1825911977e1d3bdb1475b4f66e336200014a565b600d80546001600160a01b0319166001600160a01b0383161790558151620000e990600c906020850190620001fe565b505050505062000461565b3390565b600b80546001600160a01b038381166001600160a01b0319831681179093556040519116919082907f8be0079c531659141344cd1fd0a4f28419497f9722a3daafe3b4186f6b6457e090600090a35050565b6200015682826200015a565b5050565b6000828152600a602090815260408083206001600160a01b038516845290915290205460ff1662000156576000828152600a602090815260408083206001600160a01b03851684529091529020805460ff19166001179055620001ba3390565b6001600160a01b0316816001600160a01b0316837f2f8788117e7eff1d82e926ec794901d17c78024a50270940304540a733656f0d60405160405180910390a45050565b8280546200020c9062000424565b90600052602060002090601f0160209004810192826200023057600085556200027b565b82601f106200024b57805160ff19168380011785556200027b565b828001600101855582156200027b579182015b828111156200027b5782518255916020019190600101906200025e565b50620002899291506200028d565b5090565b5b808211156200028957600081556001016200028e565b634e487b7160e01b600052604160045260246000fd5b600082601f830112620002cc57600080fd5b81516001600160401b0380821115620002e957620002e9620002a4565b604051601f8301601f19908116603f01168101908282118183101715620003145762000314620002a4565b816040528381526020925086838588010111156200033157600080fd5b600091505b8382101562000355578582018301518183018401529082019062000336565b83821115620003675760008385830101525b9695505050505050565b600080600080608085870312156200038857600080fd5b84516001600160401b0380821115620003a057600080fd5b620003ae88838901620002ba565b95506020870151915080821115620003c557600080fd5b620003d388838901620002ba565b94506040870151915080821115620003ea57600080fd5b50620003f987828801620002ba565b606087015190935090506001600160a01b03811681146200041957600080fd5b939692955090935050565b600181811c908216806200043957607f821691505b602082108114156200045b57634e487b7160e01b600052602260045260246000fd5b50919050565b61212580620004716000396000f3fe608060405234801561001057600080fd5b50600436106101e55760003560e01c806370a082311161010f578063b88d4fde116100a2578063d547741f11610071578063d547741f1461043b578063e985e9c51461044e578063ea84a95c1461048a578063f2fde38b1461049d57600080fd5b8063b88d4fde146103db578063c30f4a5a146103ee578063c87b56dd14610401578063cc28e3561461041457600080fd5b806395d89b41116100de57806395d89b41146103a55780639fbc8713146103ad578063a217fddf146103c0578063a22cb465146103c857600080fd5b806370a0823114610366578063715018a6146103795780638da5cb5b1461038157806391d148541461039257600080fd5b80632a55205a1161018757806342842e0e1161015657806342842e0e1461031a5780634f6ccce71461032d5780636352211e146103405780636a6278421461035357600080fd5b80632a55205a146102af5780632f2ff15d146102e15780632f745c59146102f457806336568abe1461030757600080fd5b8063095ea7b3116101c3578063095ea7b31461025257806318160ddd1461026757806323b872dd14610279578063248a9ca31461028c57600080fd5b806301ffc9a7146101ea57806306fdde0314610212578063081812fc14610227575b600080fd5b6101fd6101f8366004611ae9565b6104b0565b60405190151581526020015b60405180910390f35b61021a610503565b6040516102099190611b5e565b61023a610235366004611b71565b610595565b6040516001600160a01b039091168152602001610209565b610265610260366004611b9f565b61062f565b005b6008545b604051908152602001610209565b610265610287366004611bcb565b610745565b61026b61029a366004611b71565b6000908152600a602052604090206001015490565b6102c26102bd366004611c0c565b610776565b604080516001600160a01b039093168352602083019190915201610209565b6102656102ef366004611c2e565b610808565b61026b610302366004611b9f565b61082e565b610265610315366004611c2e565b6108c4565b610265610328366004611bcb565b610942565b61026b61033b366004611b71565b61095d565b61023a61034e366004611b71565b6109f0565b610265610361366004611c5e565b610a67565b61026b610374366004611c5e565b610ab2565b610265610b39565b600b546001600160a01b031661023a565b6101fd6103a0366004611c2e565b610b6f565b61021a610b9a565b600d5461023a906001600160a01b031681565b61026b600081565b6102656103d6366004611c7b565b610ba9565b6102656103e9366004611cc4565b610bb4565b6102656103fc366004611da4565b610bec565b61021a61040f366004611b71565b610c22565b61026b7fc74bd246472b6356a44a0c69308e53b2a8fba1825911977e1d3bdb1475b4f66e81565b610265610449366004611c2e565b610c8d565b6101fd61045c366004611e16565b6001600160a01b03918216600090815260056020908152604080832093909416825291909152205460ff1690565b610265610498366004611c5e565b610cb3565b6102656104ab366004611c5e565b610cff565b60006001600160e01b0319821663656cb66560e11b14156104d357506001919050565b6001600160e01b0319821663152a902d60e11b14156104f457506001919050565b6104fd82610d9a565b92915050565b60606000805461051290611e44565b80601f016020809104026020016040519081016040528092919081815260200182805461053e90611e44565b801561058b5780601f106105605761010080835404028352916020019161058b565b820191906000526020600020905b81548152906001019060200180831161056e57829003601f168201915b5050505050905090565b6000818152600260205260408120546001600160a01b03166106135760405162461bcd60e51b815260206004820152602c60248201527f4552433732313a20617070726f76656420717565727920666f72206e6f6e657860448201526b34b9ba32b73a103a37b5b2b760a11b60648201526084015b60405180910390fd5b506000908152600460205260409020546001600160a01b031690565b600061063a826109f0565b9050806001600160a01b0316836001600160a01b031614156106a85760405162461bcd60e51b815260206004820152602160248201527f4552433732313a20617070726f76616c20746f2063757272656e74206f776e656044820152603960f91b606482015260840161060a565b336001600160a01b03821614806106c457506106c4813361045c565b6107365760405162461bcd60e51b815260206004820152603860248201527f4552433732313a20617070726f76652063616c6c6572206973206e6f74206f7760448201527f6e6572206e6f7220617070726f76656420666f7220616c6c0000000000000000606482015260840161060a565b6107408383610dbf565b505050565b61074f3382610e2d565b61076b5760405162461bcd60e51b815260040161060a90611e7f565b610740838383610f24565b60008281526002602052604081205481906001600160a01b03166107d85760405162461bcd60e51b815260206004820152601960248201527822b1b437999d103737b716b2bc34b9ba32b73a103a37b5b2b760391b604482015260640161060a565b600d546001600160a01b03166127106107f361023986611ee6565b6107fd9190611f05565b915091509250929050565b6000828152600a602052604090206001015461082481336110cf565b6107408383611133565b600061083983610ab2565b821061089b5760405162461bcd60e51b815260206004820152602b60248201527f455243373231456e756d657261626c653a206f776e657220696e646578206f7560448201526a74206f6620626f756e647360a81b606482015260840161060a565b506001600160a01b03919091166000908152600660209081526040808320938352929052205490565b6001600160a01b03811633146109345760405162461bcd60e51b815260206004820152602f60248201527f416363657373436f6e74726f6c3a2063616e206f6e6c792072656e6f756e636560448201526e103937b632b9903337b91039b2b63360891b606482015260840161060a565b61093e82826111b9565b5050565b61074083838360405180602001604052806000815250610bb4565b600061096860085490565b82106109cb5760405162461bcd60e51b815260206004820152602c60248201527f455243373231456e756d657261626c653a20676c6f62616c20696e646578206f60448201526b7574206f6620626f756e647360a01b606482015260840161060a565b600882815481106109de576109de611f27565b90600052602060002001549050919050565b6000818152600260205260408120546001600160a01b0316806104fd5760405162461bcd60e51b815260206004820152602960248201527f4552433732313a206f776e657220717565727920666f72206e6f6e657869737460448201526832b73a103a37b5b2b760b91b606482015260840161060a565b7fc74bd246472b6356a44a0c69308e53b2a8fba1825911977e1d3bdb1475b4f66e610a9281336110cf565b610aa482610a9f600e5490565b611220565b61093e600e80546001019055565b60006001600160a01b038216610b1d5760405162461bcd60e51b815260206004820152602a60248201527f4552433732313a2062616c616e636520717565727920666f7220746865207a65604482015269726f206164647265737360b01b606482015260840161060a565b506001600160a01b031660009081526003602052604090205490565b600b546001600160a01b03163314610b635760405162461bcd60e51b815260040161060a90611f3d565b610b6d600061136e565b565b6000918252600a602090815260408084206001600160a01b0393909316845291905290205460ff1690565b60606001805461051290611e44565b61093e3383836113c0565b610bbe3383610e2d565b610bda5760405162461bcd60e51b815260040161060a90611e7f565b610be68484848461148f565b50505050565b600b546001600160a01b03163314610c165760405162461bcd60e51b815260040161060a90611f3d565b610740600c8383611a3a565b6000818152600260205260409020546060906001600160a01b0316610c855760405162461bcd60e51b815260206004820152601960248201527822b1b437999d103737b716b2bc34b9ba32b73a103a37b5b2b760391b604482015260640161060a565b6104fd6114c2565b6000828152600a6020526040902060010154610ca981336110cf565b61074083836111b9565b600b546001600160a01b03163314610cdd5760405162461bcd60e51b815260040161060a90611f3d565b600d80546001600160a01b0319166001600160a01b0392909216919091179055565b600b546001600160a01b03163314610d295760405162461bcd60e51b815260040161060a90611f3d565b6001600160a01b038116610d8e5760405162461bcd60e51b815260206004820152602660248201527f4f776e61626c653a206e6577206f776e657220697320746865207a65726f206160448201526564647265737360d01b606482015260840161060a565b610d978161136e565b50565b60006001600160e01b03198216637965db0b60e01b14806104fd57506104fd826114d1565b600081815260046020526040902080546001600160a01b0319166001600160a01b0384169081179091558190610df4826109f0565b6001600160a01b03167f8c5be1e5ebec7d5bd14f71427d1e84f3dd0314c0f7b2291e5b200ac8c7c3b92560405160405180910390a45050565b6000818152600260205260408120546001600160a01b0316610ea65760405162461bcd60e51b815260206004820152602c60248201527f4552433732313a206f70657261746f7220717565727920666f72206e6f6e657860448201526b34b9ba32b73a103a37b5b2b760a11b606482015260840161060a565b6000610eb1836109f0565b9050806001600160a01b0316846001600160a01b03161480610eec5750836001600160a01b0316610ee184610595565b6001600160a01b0316145b80610f1c57506001600160a01b0380821660009081526005602090815260408083209388168352929052205460ff165b949350505050565b826001600160a01b0316610f37826109f0565b6001600160a01b031614610f9f5760405162461bcd60e51b815260206004820152602960248201527f4552433732313a207472616e73666572206f6620746f6b656e2074686174206960448201526839903737ba1037bbb760b91b606482015260840161060a565b6001600160a01b0382166110015760405162461bcd60e51b8152602060048201526024808201527f4552433732313a207472616e7366657220746f20746865207a65726f206164646044820152637265737360e01b606482015260840161060a565b61100c8383836114f6565b611017600082610dbf565b6001600160a01b0383166000908152600360205260408120805460019290611040908490611f72565b90915550506001600160a01b038216600090815260036020526040812080546001929061106e908490611f89565b909155505060008181526002602052604080822080546001600160a01b0319166001600160a01b0386811691821790925591518493918716917fddf252ad1be2c89b69c2b068fc378daa952ba7f163c4a11628f55a4df523b3ef91a4505050565b6110d98282610b6f565b61093e576110f1816001600160a01b03166014611501565b6110fc836020611501565b60405160200161110d929190611fa1565b60408051601f198184030181529082905262461bcd60e51b825261060a91600401611b5e565b61113d8282610b6f565b61093e576000828152600a602090815260408083206001600160a01b03851684529091529020805460ff191660011790556111753390565b6001600160a01b0316816001600160a01b0316837f2f8788117e7eff1d82e926ec794901d17c78024a50270940304540a733656f0d60405160405180910390a45050565b6111c38282610b6f565b1561093e576000828152600a602090815260408083206001600160a01b0385168085529252808320805460ff1916905551339285917ff6391f5c32d9c69d2a47ea670b442974b53935d1edc7fd64eb21e047a839171b9190a45050565b6001600160a01b0382166112765760405162461bcd60e51b815260206004820181905260248201527f4552433732313a206d696e7420746f20746865207a65726f2061646472657373604482015260640161060a565b6000818152600260205260409020546001600160a01b0316156112db5760405162461bcd60e51b815260206004820152601c60248201527f4552433732313a20746f6b656e20616c7265616479206d696e74656400000000604482015260640161060a565b6112e7600083836114f6565b6001600160a01b0382166000908152600360205260408120805460019290611310908490611f89565b909155505060008181526002602052604080822080546001600160a01b0319166001600160a01b03861690811790915590518392907fddf252ad1be2c89b69c2b068fc378daa952ba7f163c4a11628f55a4df523b3ef908290a45050565b600b80546001600160a01b038381166001600160a01b0319831681179093556040519116919082907f8be0079c531659141344cd1fd0a4f28419497f9722a3daafe3b4186f6b6457e090600090a35050565b816001600160a01b0316836001600160a01b031614156114225760405162461bcd60e51b815260206004820152601960248201527f4552433732313a20617070726f766520746f2063616c6c657200000000000000604482015260640161060a565b6001600160a01b03838116600081815260056020908152604080832094871680845294825291829020805460ff191686151590811790915591519182527f17307eab39ab6107e8899845ad3d59bd9653f200f220920489ca2b5937696c31910160405180910390a3505050565b61149a848484610f24565b6114a6848484846116a4565b610be65760405162461bcd60e51b815260040161060a90612016565b6060600c805461051290611e44565b60006001600160e01b0319821663780e9d6360e01b14806104fd57506104fd826117a2565b6107408383836117f2565b60606000611510836002611ee6565b61151b906002611f89565b67ffffffffffffffff81111561153357611533611cae565b6040519080825280601f01601f19166020018201604052801561155d576020820181803683370190505b509050600360fc1b8160008151811061157857611578611f27565b60200101906001600160f81b031916908160001a905350600f60fb1b816001815181106115a7576115a7611f27565b60200101906001600160f81b031916908160001a90535060006115cb846002611ee6565b6115d6906001611f89565b90505b600181111561164e576f181899199a1a9b1b9c1cb0b131b232b360811b85600f166010811061160a5761160a611f27565b1a60f81b82828151811061162057611620611f27565b60200101906001600160f81b031916908160001a90535060049490941c9361164781612068565b90506115d9565b50831561169d5760405162461bcd60e51b815260206004820181905260248201527f537472696e67733a20686578206c656e67746820696e73756666696369656e74604482015260640161060a565b9392505050565b60006001600160a01b0384163b1561179757604051630a85bd0160e11b81526001600160a01b0385169063150b7a02906116e890339089908890889060040161207f565b6020604051808303816000875af1925050508015611723575060408051601f3d908101601f19168201909252611720918101906120bc565b60015b61177d573d808015611751576040519150601f19603f3d011682016040523d82523d6000602084013e611756565b606091505b5080516117755760405162461bcd60e51b815260040161060a90612016565b805181602001fd5b6001600160e01b031916630a85bd0160e11b149050610f1c565b506001949350505050565b60006001600160e01b031982166380ac58cd60e01b14806117d357506001600160e01b03198216635b5e139f60e01b145b806104fd57506301ffc9a760e01b6001600160e01b03198316146104fd565b6001600160a01b03831661184d5761184881600880546000838152600960205260408120829055600182018355919091527ff3f7a9fe364faab93b216da50a3214154f22a0a2b415b23a84c8169e8b636ee30155565b611870565b816001600160a01b0316836001600160a01b0316146118705761187083826118aa565b6001600160a01b0382166118875761074081611947565b826001600160a01b0316826001600160a01b0316146107405761074082826119f6565b600060016118b784610ab2565b6118c19190611f72565b600083815260076020526040902054909150808214611914576001600160a01b03841660009081526006602090815260408083208584528252808320548484528184208190558352600790915290208190555b5060009182526007602090815260408084208490556001600160a01b039094168352600681528383209183525290812055565b60085460009061195990600190611f72565b6000838152600960205260408120546008805493945090928490811061198157611981611f27565b9060005260206000200154905080600883815481106119a2576119a2611f27565b60009182526020808320909101929092558281526009909152604080822084905585825281205560088054806119da576119da6120d9565b6001900381819060005260206000200160009055905550505050565b6000611a0183610ab2565b6001600160a01b039093166000908152600660209081526040808320868452825280832085905593825260079052919091209190915550565b828054611a4690611e44565b90600052602060002090601f016020900481019282611a685760008555611aae565b82601f10611a815782800160ff19823516178555611aae565b82800160010185558215611aae579182015b82811115611aae578235825591602001919060010190611a93565b50611aba929150611abe565b5090565b5b80821115611aba5760008155600101611abf565b6001600160e01b031981168114610d9757600080fd5b600060208284031215611afb57600080fd5b813561169d81611ad3565b60005b83811015611b21578181015183820152602001611b09565b83811115610be65750506000910152565b60008151808452611b4a816020860160208601611b06565b601f01601f19169290920160200192915050565b60208152600061169d6020830184611b32565b600060208284031215611b8357600080fd5b5035919050565b6001600160a01b0381168114610d9757600080fd5b60008060408385031215611bb257600080fd5b8235611bbd81611b8a565b946020939093013593505050565b600080600060608486031215611be057600080fd5b8335611beb81611b8a565b92506020840135611bfb81611b8a565b929592945050506040919091013590565b60008060408385031215611c1f57600080fd5b50508035926020909101359150565b60008060408385031215611c4157600080fd5b823591506020830135611c5381611b8a565b809150509250929050565b600060208284031215611c7057600080fd5b813561169d81611b8a565b60008060408385031215611c8e57600080fd5b8235611c9981611b8a565b915060208301358015158114611c5357600080fd5b634e487b7160e01b600052604160045260246000fd5b60008060008060808587031215611cda57600080fd5b8435611ce581611b8a565b93506020850135611cf581611b8a565b925060408501359150606085013567ffffffffffffffff80821115611d1957600080fd5b818701915087601f830112611d2d57600080fd5b813581811115611d3f57611d3f611cae565b604051601f8201601f19908116603f01168101908382118183101715611d6757611d67611cae565b816040528281528a6020848701011115611d8057600080fd5b82602086016020830137600060208483010152809550505050505092959194509250565b60008060208385031215611db757600080fd5b823567ffffffffffffffff80821115611dcf57600080fd5b818501915085601f830112611de357600080fd5b813581811115611df257600080fd5b866020828501011115611e0457600080fd5b60209290920196919550909350505050565b60008060408385031215611e2957600080fd5b8235611e3481611b8a565b91506020830135611c5381611b8a565b600181811c90821680611e5857607f821691505b60208210811415611e7957634e487b7160e01b600052602260045260246000fd5b50919050565b60208082526031908201527f4552433732313a207472616e736665722063616c6c6572206973206e6f74206f6040820152701ddb995c881b9bdc88185c1c1c9bdd9959607a1b606082015260800190565b634e487b7160e01b600052601160045260246000fd5b6000816000190483118215151615611f0057611f00611ed0565b500290565b600082611f2257634e487b7160e01b600052601260045260246000fd5b500490565b634e487b7160e01b600052603260045260246000fd5b6020808252818101527f4f776e61626c653a2063616c6c6572206973206e6f7420746865206f776e6572604082015260600190565b600082821015611f8457611f84611ed0565b500390565b60008219821115611f9c57611f9c611ed0565b500190565b7f416363657373436f6e74726f6c3a206163636f756e7420000000000000000000815260008351611fd9816017850160208801611b06565b7001034b99036b4b9b9b4b733903937b6329607d1b601791840191820152835161200a816028840160208801611b06565b01602801949350505050565b60208082526032908201527f4552433732313a207472616e7366657220746f206e6f6e20455243373231526560408201527131b2b4bb32b91034b6b83632b6b2b73a32b960711b606082015260800190565b60008161207757612077611ed0565b506000190190565b6001600160a01b03858116825284166020820152604081018390526080606082018190526000906120b290830184611b32565b9695505050505050565b6000602082840312156120ce57600080fd5b815161169d81611ad3565b634e487b7160e01b600052603160045260246000fdfea2646970667358221220cfe76923e48f97dc9082d1e95cba06d6dbea85e28f8c73e87b55d13fa314109364736f6c634300080b0033",
  "linkReferences": {},
  "deployedLinkReferences": {}
}