{
  "_format": "hh-sol-artifact-1",
  "contractName": "Distributor",
  "sourceName": "contracts/NFTDistributor_v4_MerkleDrop.sol",
  "abi": [
    {
      "inputs": [
        {
          "internalType": "address",
          "name": "_collection",
          "type": "address"
        },
        {
          "internalType": "uint256",
          "name": "_collectionSize",
          "type": "uint256"
        },
        {
          "internalType": "address payable",
          "name": "_liquidityCollector",
          "type": "address"
        },
        {
          "internalType": "uint256",
          "name": "_releaseDate",
          "type": "uint256"
        },
        {
          "internalType": "uint256",
          "name": "_wlReleaseDate",
          "type": "uint256"
        },
        {
          "internalType": "uint256",
          "name": "_price",
          "type": "uint256"
        }
      ],
      "stateMutability": "nonpayable",
      "type": "constructor"
    },
    {
      "anonymous": false,
      "inputs": [
        {
          "indexed": true,
          "internalType": "address",
          "name": "previousOwner",
          "type": "address"
        },
        {
          "indexed": true,
          "internalType": "address",
          "name": "newOwner",
          "type": "address"
        }
      ],
      "name": "OwnershipTransferred",
      "type": "event"
    },
    {
      "anonymous": false,
      "inputs": [
        {
          "indexed": false,
          "internalType": "address",
          "name": "account",
          "type": "address"
        }
      ],
      "name": "Paused",
      "type": "event"
    },
    {
      "anonymous": false,
      "inputs": [
        {
          "indexed": false,
          "internalType": "address",
          "name": "account",
          "type": "address"
        }
      ],
      "name": "Unpaused",
      "type": "event"
    },
    {
      "inputs": [],
      "name": "MAX_ISSUANCE_PER_TX",
      "outputs": [
        {
          "internalType": "uint256",
          "name": "",
          "type": "uint256"
        }
      ],
      "stateMutability": "view",
      "type": "function"
    },
    {
      "inputs": [
        {
          "internalType": "uint256",
          "name": "quantity",
          "type": "uint256"
        },
        {
          "components": [
            {
              "internalType": "uint256",
              "name": "whitelist",
              "type": "uint256"
            },
            {
              "internalType": "uint256",
              "name": "freeMint",
              "type": "uint256"
            }
          ],
          "internalType": "struct Distributor.LeafConfig",
          "name": "config",
          "type": "tuple"
        },
        {
          "internalType": "bytes32[]",
          "name": "proof",
          "type": "bytes32[]"
        }
      ],
      "name": "claimFreeMint",
      "outputs": [],
      "stateMutability": "nonpayable",
      "type": "function"
    },
    {
      "inputs": [],
      "name": "collection",
      "outputs": [
        {
          "internalType": "contract INFT",
          "name": "",
          "type": "address"
        }
      ],
      "stateMutability": "view",
      "type": "function"
    },
    {
      "inputs": [],
      "name": "collectionSize",
      "outputs": [
        {
          "internalType": "uint256",
          "name": "",
          "type": "uint256"
        }
      ],
      "stateMutability": "view",
      "type": "function"
    },
    {
      "inputs": [],
      "name": "freeMintClaimDeadline",
      "outputs": [
        {
          "internalType": "uint256",
          "name": "",
          "type": "uint256"
        }
      ],
      "stateMutability": "view",
      "type": "function"
    },
    {
      "inputs": [
        {
          "internalType": "address",
          "name": "",
          "type": "address"
        }
      ],
      "name": "freeMintClaimed",
      "outputs": [
        {
          "internalType": "uint256",
          "name": "",
          "type": "uint256"
        }
      ],
      "stateMutability": "view",
      "type": "function"
    },
    {
      "inputs": [],
      "name": "freeMintContingent",
      "outputs": [
        {
          "internalType": "uint256",
          "name": "",
          "type": "uint256"
        }
      ],
      "stateMutability": "view",
      "type": "function"
    },
    {
      "inputs": [],
      "name": "getCurrentItemPrice",
      "outputs": [
        {
          "internalType": "uint256",
          "name": "",
          "type": "uint256"
        }
      ],
      "stateMutability": "view",
      "type": "function"
    },
    {
      "inputs": [],
      "name": "itemPrice",
      "outputs": [
        {
          "internalType": "uint256",
          "name": "",
          "type": "uint256"
        }
      ],
      "stateMutability": "view",
      "type": "function"
    },
    {
      "inputs": [],
      "name": "liquidityCollector",
      "outputs": [
        {
          "internalType": "address payable",
          "name": "",
          "type": "address"
        }
      ],
      "stateMutability": "view",
      "type": "function"
    },
    {
      "inputs": [
        {
          "internalType": "uint256",
          "name": "quantity",
          "type": "uint256"
        },
        {
          "components": [
            {
              "internalType": "uint256",
              "name": "whitelist",
              "type": "uint256"
            },
            {
              "internalType": "uint256",
              "name": "freeMint",
              "type": "uint256"
            }
          ],
          "internalType": "struct Distributor.LeafConfig",
          "name": "config",
          "type": "tuple"
        },
        {
          "internalType": "bytes32[]",
          "name": "proof",
          "type": "bytes32[]"
        }
      ],
      "name": "mintNewNFTs",
      "outputs": [],
      "stateMutability": "payable",
      "type": "function"
    },
    {
      "inputs": [],
      "name": "owner",
      "outputs": [
        {
          "internalType": "address",
          "name": "",
          "type": "address"
        }
      ],
      "stateMutability": "view",
      "type": "function"
    },
    {
      "inputs": [],
      "name": "paused",
      "outputs": [
        {
          "internalType": "bool",
          "name": "",
          "type": "bool"
        }
      ],
      "stateMutability": "view",
      "type": "function"
    },
    {
      "inputs": [],
      "name": "releaseDate",
      "outputs": [
        {
          "internalType": "uint256",
          "name": "",
          "type": "uint256"
        }
      ],
      "stateMutability": "view",
      "type": "function"
    },
    {
      "inputs": [],
      "name": "renounceOwnership",
      "outputs": [],
      "stateMutability": "nonpayable",
      "type": "function"
    },
    {
      "inputs": [],
      "name": "rootHash",
      "outputs": [
        {
          "internalType": "bytes32",
          "name": "",
          "type": "bytes32"
        }
      ],
      "stateMutability": "view",
      "type": "function"
    },
    {
      "inputs": [
        {
          "internalType": "bytes32",
          "name": "_rootHash",
          "type": "bytes32"
        }
      ],
      "name": "setRootHash",
      "outputs": [],
      "stateMutability": "nonpayable",
      "type": "function"
    },
    {
      "inputs": [],
      "name": "togglePause",
      "outputs": [],
      "stateMutability": "nonpayable",
      "type": "function"
    },
    {
      "inputs": [
        {
          "internalType": "address",
          "name": "newOwner",
          "type": "address"
        }
      ],
      "name": "transferOwnership",
      "outputs": [],
      "stateMutability": "nonpayable",
      "type": "function"
    },
    {
      "inputs": [
        {
          "internalType": "uint256",
          "name": "_contingent",
          "type": "uint256"
        }
      ],
      "name": "updateFreeMintContingent",
      "outputs": [],
      "stateMutability": "nonpayable",
      "type": "function"
    },
    {
      "inputs": [
        {
          "internalType": "address payable",
          "name": "newCollector",
          "type": "address"
        }
      ],
      "name": "updateLiquidityCollector",
      "outputs": [],
      "stateMutability": "nonpayable",
      "type": "function"
    },
    {
      "inputs": [
        {
          "internalType": "uint256",
          "name": "_releaseDate",
          "type": "uint256"
        },
        {
          "internalType": "uint256",
          "name": "_wlReleaseDate",
          "type": "uint256"
        }
      ],
      "name": "updateReleaseDates",
      "outputs": [],
      "stateMutability": "nonpayable",
      "type": "function"
    },
    {
      "inputs": [
        {
          "internalType": "address",
          "name": "",
          "type": "address"
        }
      ],
      "name": "whitelistClaimed",
      "outputs": [
        {
          "internalType": "uint256",
          "name": "",
          "type": "uint256"
        }
      ],
      "stateMutability": "view",
      "type": "function"
    },
    {
      "inputs": [],
      "name": "wlReleaseDate",
      "outputs": [
        {
          "internalType": "uint256",
          "name": "",
          "type": "uint256"
        }
      ],
      "stateMutability": "view",
      "type": "function"
    }
  ],
  "bytecode": "0x60a06040523480156200001157600080fd5b506040516200158d3803806200158d833981016040819052620000349162000197565b6000805460ff19169055600180556200004d336200009d565b600380546001600160a01b038089166001600160a01b0319928316179092556080879052600c8054928716929091169190911790556200008e8383620000ef565b60045550620002229350505050565b600280546001600160a01b038381166001600160a01b0319831681179093556040519116919082907f8be0079c531659141344cd1fd0a4f28419497f9722a3daafe3b4186f6b6457e090600090a35050565b6002546001600160a01b031633146200014e5760405162461bcd60e51b815260206004820181905260248201527f4f776e61626c653a2063616c6c6572206973206e6f7420746865206f776e6572604482015260640160405180910390fd5b808210156200015c57600080fd5b600582905560068190556228de80620001768184620001fb565b600755505050565b6001600160a01b03811681146200019457600080fd5b50565b60008060008060008060c08789031215620001b157600080fd5b8651620001be816200017e565b602088015160408901519197509550620001d8816200017e565b80945050606087015192506080870151915060a087015190509295509295509295565b600082198211156200021d57634e487b7160e01b600052601160045260246000fd5b500190565b6080516113416200024c600039600081816101d6015281816106c20152610d9001526113416000f3fe60806040526004361061014b5760003560e01c8063b0711c8a116100b6578063db4bec441161006f578063db4bec4414610367578063e0699d8714610394578063e0ec7c36146103b4578063e47720b1146103e1578063eb36451914610401578063f2fde38b1461041757600080fd5b8063b0711c8a146102d1578063b9e3e2db146102e6578063c4ae3168146102fc578063d67f99f614610311578063d97b126914610331578063dac6db1c1461035157600080fd5b8063715018a611610108578063715018a61461021b5780637278cdf1146102305780637de1e536146102465780638da5cb5b1461027e57806397e187d91461029c5780639b96acdc146102b157600080fd5b80631d7f06cd146101505780631d80009a146101655780632d7eae661461018e5780633303eec5146101ae57806345c0f533146101c45780635c975abb146101f8575b600080fd5b61016361015e3660046110fb565b610437565b005b34801561017157600080fd5b5061017b60095481565b6040519081526020015b60405180910390f35b34801561019a57600080fd5b506101636101a9366004611191565b610864565b3480156101ba57600080fd5b5061017b60075481565b3480156101d057600080fd5b5061017b7f000000000000000000000000000000000000000000000000000000000000000081565b34801561020457600080fd5b5060005460ff166040519015158152602001610185565b34801561022757600080fd5b50610163610893565b34801561023c57600080fd5b5061017b60065481565b34801561025257600080fd5b50600354610266906001600160a01b031681565b6040516001600160a01b039091168152602001610185565b34801561028a57600080fd5b506002546001600160a01b0316610266565b3480156102a857600080fd5b5060045461017b565b3480156102bd57600080fd5b50600c54610266906001600160a01b031681565b3480156102dd57600080fd5b5061017b601481565b3480156102f257600080fd5b5061017b60055481565b34801561030857600080fd5b506101636108c9565b34801561031d57600080fd5b5061016361032c3660046111bf565b61090e565b34801561033d57600080fd5b5061016361034c3660046111dc565b61097d565b34801561035d57600080fd5b5061017b60045481565b34801561037357600080fd5b5061017b6103823660046111bf565b600a6020526000908152604090205481565b3480156103a057600080fd5b506101636103af366004611191565b6109d4565b3480156103c057600080fd5b5061017b6103cf3660046111bf565b600b6020526000908152604090205481565b3480156103ed57600080fd5b506101636103fc3660046110fb565b610a03565b34801561040d57600080fd5b5061017b60085481565b34801561042357600080fd5b506101636104323660046111bf565b610c46565b60005460ff16156104635760405162461bcd60e51b815260040161045a906111fe565b60405180910390fd5b600260015414156104b65760405162461bcd60e51b815260206004820152601f60248201527f5265656e7472616e637947756172643a207265656e7472616e742063616c6c00604482015260640161045a565b6002600155600654600090421180156104d0575060055442105b90506000600654421180156104e6575060055442115b905081806104f15750805b6105315760405162461bcd60e51b8152602060048201526011602482015270110e8815d3081b9bdd081cdd185c9d1959607a1b604482015260640161045a565b85858585600060065442118015610549575060055442105b9050801561061a5761056b6105643386356020880135610ce1565b8484610d30565b6105a05760405162461bcd60e51b81526020600482015260066024820152650443a20494d560d41b604482015260640161045a565b83356105cc86600a6000335b6001600160a01b0316815260208101919091526040016000205490610d7b565b111561061a5760405162461bcd60e51b815260206004820152601b60248201527f443a2051756e6174697479203e20574c20436f6e74696e67656e740000000000604482015260640161045a565b60008b60045461062a919061123e565b90508034101561066d5760405162461bcd60e51b815260206004820152600e60248201526d443a2045544820746f6f206c6f7760901b604482015260640161045a565b60148c11156106b05760405162461bcd60e51b815260206004820152600f60248201526e443a204d41585f49535355414e434560881b604482015260640161045a565b60075442116107a4576008546106e6907f000000000000000000000000000000000000000000000000000000000000000061125d565b60035460408051632140f7df60e21b815290518f926001600160a01b031691638503df7c9160048083019260209291908290030181865afa15801561072f573d6000803e3d6000fd5b505050506040513d601f19601f820116820180604052508101906107539190611274565b61075d919061128d565b11156107a45760405162461bcd60e51b8152602060048201526016602482015275221d102326902932b9b2b93b32903737ba1037b832b760511b604482015260640161045a565b6107ae338d610d8e565b60006107ba3483610ef0565b905080156107f157604051339082156108fc029083906000818181858888f193505050501580156107ef573d6000803e3d6000fd5b505b600c546040516001600160a01b039091169083156108fc029084906000818181858888f1935050505015801561082b573d6000803e3d6000fd5b50505080156108535761084285600a6000336105ac565b336000908152600a60205260409020555b505060018055505050505050505050565b6002546001600160a01b0316331461088e5760405162461bcd60e51b815260040161045a906112a5565b600955565b6002546001600160a01b031633146108bd5760405162461bcd60e51b815260040161045a906112a5565b6108c76000610efc565b565b6002546001600160a01b031633146108f35760405162461bcd60e51b815260040161045a906112a5565b60005460ff1615610906576108c7610f4e565b6108c7610fe1565b60005460ff16156109315760405162461bcd60e51b815260040161045a906111fe565b6002546001600160a01b0316331461095b5760405162461bcd60e51b815260040161045a906112a5565b600c80546001600160a01b0319166001600160a01b0392909216919091179055565b6002546001600160a01b031633146109a75760405162461bcd60e51b815260040161045a906112a5565b808210156109b457600080fd5b600582905560068190556228de806109cc818461128d565b600755505050565b6002546001600160a01b031633146109fe5760405162461bcd60e51b815260040161045a906112a5565b600855565b60026001541415610a565760405162461bcd60e51b815260206004820152601f60248201527f5265656e7472616e637947756172643a207265656e7472616e742063616c6c00604482015260640161045a565b600260015560065460009042118015610a70575060055442105b9050600060065442118015610a86575060055442115b90508180610a915750805b610ad15760405162461bcd60e51b8152602060048201526011602482015270110e8815d3081b9bdd081cdd185c9d1959607a1b604482015260640161045a565b858585856000836020013511610b145760405162461bcd60e51b8152602060048201526008602482015267443a204e6f20464d60c01b604482015260640161045a565b610b2e610b273385356020870135610ce1565b8383610d30565b610b635760405162461bcd60e51b81526020600482015260066024820152650443a20494d560d41b604482015260640161045a565b6020830135610b7685600b6000336105ac565b1115610bc45760405162461bcd60e51b815260206004820152601b60248201527f443a205175616e74697479203e20464d20636f6e74696e67656e740000000000604482015260640161045a565b600754421115610c0e5760405162461bcd60e51b8152602060048201526015602482015274110e88119348191958591b1a5b99481c185cdcd959605a1b604482015260640161045a565b610c18338b610d8e565b610c2684600b6000336105ac565b336000908152600b60205260409020555050600180555050505050505050565b6002546001600160a01b03163314610c705760405162461bcd60e51b815260040161045a906112a5565b6001600160a01b038116610cd55760405162461bcd60e51b815260206004820152602660248201527f4f776e61626c653a206e6577206f776e657220697320746865207a65726f206160448201526564647265737360d01b606482015260840161045a565b610cde81610efc565b50565b6040516bffffffffffffffffffffffff19606085901b16602082015260348101839052605481018290526000906074016040516020818303038152906040528051906020012090509392505050565b6000610d73838380806020026020016040519081016040528093929190818152602001838360200280828437600092019190915250506009549150879050611039565b949350505050565b6000610d87828461128d565b9392505050565b7f000000000000000000000000000000000000000000000000000000000000000081600360009054906101000a90046001600160a01b03166001600160a01b0316638503df7c6040518163ffffffff1660e01b8152600401602060405180830381865afa158015610e03573d6000803e3d6000fd5b505050506040513d601f19601f82011682018060405250810190610e279190611274565b610e31919061128d565b1115610e6e5760405162461bcd60e51b815260206004820152600c60248201526b443a20536f6c64206f75742160a01b604482015260640161045a565b60005b81811015610eeb576003546040516335313c2160e11b81526001600160a01b03858116600483015290911690636a62784290602401600060405180830381600087803b158015610ec057600080fd5b505af1158015610ed4573d6000803e3d6000fd5b505050508080610ee3906112da565b915050610e71565b505050565b6000610d87828461125d565b600280546001600160a01b038381166001600160a01b0319831681179093556040519116919082907f8be0079c531659141344cd1fd0a4f28419497f9722a3daafe3b4186f6b6457e090600090a35050565b60005460ff16610f975760405162461bcd60e51b815260206004820152601460248201527314185d5cd8589b194e881b9bdd081c185d5cd95960621b604482015260640161045a565b6000805460ff191690557f5db9ee0a495bf2e6ff9c91a7834c1ba4fdd244a5e8aa4e537bd38aeae4b073aa335b6040516001600160a01b03909116815260200160405180910390a1565b60005460ff16156110045760405162461bcd60e51b815260040161045a906111fe565b6000805460ff191660011790557f62e78cea01bee320cd4e420270b5ea74000d11b0c9f74754ebdbfc544b05a258610fc43390565b600082611046858461104f565b14949350505050565b600081815b84518110156110f3576000858281518110611071576110716112f5565b602002602001015190508083116110b35760408051602081018590529081018290526060016040516020818303038152906040528051906020012092506110e0565b60408051602081018390529081018490526060016040516020818303038152906040528051906020012092505b50806110eb816112da565b915050611054565b509392505050565b600080600080848603608081121561111257600080fd5b853594506040601f198201121561112857600080fd5b50602085019250606085013567ffffffffffffffff8082111561114a57600080fd5b818701915087601f83011261115e57600080fd5b81358181111561116d57600080fd5b8860208260051b850101111561118257600080fd5b95989497505060200194505050565b6000602082840312156111a357600080fd5b5035919050565b6001600160a01b0381168114610cde57600080fd5b6000602082840312156111d157600080fd5b8135610d87816111aa565b600080604083850312156111ef57600080fd5b50508035926020909101359150565b60208082526010908201526f14185d5cd8589b194e881c185d5cd95960821b604082015260600190565b634e487b7160e01b600052601160045260246000fd5b600081600019048311821515161561125857611258611228565b500290565b60008282101561126f5761126f611228565b500390565b60006020828403121561128657600080fd5b5051919050565b600082198211156112a0576112a0611228565b500190565b6020808252818101527f4f776e61626c653a2063616c6c6572206973206e6f7420746865206f776e6572604082015260600190565b60006000198214156112ee576112ee611228565b5060010190565b634e487b7160e01b600052603260045260246000fdfea26469706673582212208d38536064add775fb8dde54cf96d258039b4286515d8694cd91f025638e53ca64736f6c634300080b0033",
  "linkReferences": {},
  "deployedLinkReferences": {}
}