{
  "_format": "hh-sol-artifact-1",
  "contractName": "NFT",
  "sourceName": "contracts/NFT.sol",
  "abi": [
    {
      "inputs": [
        {
          "internalType": "string",
          "name": "_name",
          "type": "string"
        },
        {
          "internalType": "string",
          "name": "_symbol",
          "type": "string"
        },
        {
          "internalType": "string",
          "name": "_unrevealedURI",
          "type": "string"
        },
        {
          "internalType": "address payable",
          "name": "_royaltyReceiver",
          "type": "address"
        },
        {
          "internalType": "uint96",
          "name": "_royaltyBasisPoints",
          "type": "uint96"
        }
      ],
      "stateMutability": "nonpayable",
      "type": "constructor"
    },
    {
      "anonymous": false,
      "inputs": [
        {
          "indexed": true,
          "internalType": "address",
          "name": "owner",
          "type": "address"
        },
        {
          "indexed": true,
          "internalType": "address",
          "name": "approved",
          "type": "address"
        },
        {
          "indexed": true,
          "internalType": "uint256",
          "name": "tokenId",
          "type": "uint256"
        }
      ],
      "name": "Approval",
      "type": "event"
    },
    {
      "anonymous": false,
      "inputs": [
        {
          "indexed": true,
          "internalType": "address",
          "name": "owner",
          "type": "address"
        },
        {
          "indexed": true,
          "internalType": "address",
          "name": "operator",
          "type": "address"
        },
        {
          "indexed": false,
          "internalType": "bool",
          "name": "approved",
          "type": "bool"
        }
      ],
      "name": "ApprovalForAll",
      "type": "event"
    },
    {
      "anonymous": false,
      "inputs": [
        {
          "indexed": false,
          "internalType": "uint256",
          "name": "tokenId",
          "type": "uint256"
        },
        {
          "indexed": false,
          "internalType": "uint256",
          "name": "newSize",
          "type": "uint256"
        }
      ],
      "name": "NFTIncreasedInSize",
      "type": "event"
    },
    {
      "anonymous": false,
      "inputs": [
        {
          "indexed": true,
          "internalType": "address",
          "name": "previousOwner",
          "type": "address"
        },
        {
          "indexed": true,
          "internalType": "address",
          "name": "newOwner",
          "type": "address"
        }
      ],
      "name": "OwnershipTransferred",
      "type": "event"
    },
    {
      "anonymous": false,
      "inputs": [
        {
          "indexed": true,
          "internalType": "bytes32",
          "name": "role",
          "type": "bytes32"
        },
        {
          "indexed": true,
          "internalType": "bytes32",
          "name": "previousAdminRole",
          "type": "bytes32"
        },
        {
          "indexed": true,
          "internalType": "bytes32",
          "name": "newAdminRole",
          "type": "bytes32"
        }
      ],
      "name": "RoleAdminChanged",
      "type": "event"
    },
    {
      "anonymous": false,
      "inputs": [
        {
          "indexed": true,
          "internalType": "bytes32",
          "name": "role",
          "type": "bytes32"
        },
        {
          "indexed": true,
          "internalType": "address",
          "name": "account",
          "type": "address"
        },
        {
          "indexed": true,
          "internalType": "address",
          "name": "sender",
          "type": "address"
        }
      ],
      "name": "RoleGranted",
      "type": "event"
    },
    {
      "anonymous": false,
      "inputs": [
        {
          "indexed": true,
          "internalType": "bytes32",
          "name": "role",
          "type": "bytes32"
        },
        {
          "indexed": true,
          "internalType": "address",
          "name": "account",
          "type": "address"
        },
        {
          "indexed": true,
          "internalType": "address",
          "name": "sender",
          "type": "address"
        }
      ],
      "name": "RoleRevoked",
      "type": "event"
    },
    {
      "anonymous": false,
      "inputs": [
        {
          "indexed": true,
          "internalType": "address",
          "name": "from",
          "type": "address"
        },
        {
          "indexed": true,
          "internalType": "address",
          "name": "to",
          "type": "address"
        },
        {
          "indexed": true,
          "internalType": "uint256",
          "name": "tokenId",
          "type": "uint256"
        }
      ],
      "name": "Transfer",
      "type": "event"
    },
    {
      "inputs": [],
      "name": "DEFAULT_ADMIN_ROLE",
      "outputs": [
        {
          "internalType": "bytes32",
          "name": "",
          "type": "bytes32"
        }
      ],
      "stateMutability": "view",
      "type": "function"
    },
    {
      "inputs": [],
      "name": "DMSS_PROVENANCE",
      "outputs": [
        {
          "internalType": "string",
          "name": "",
          "type": "string"
        }
      ],
      "stateMutability": "view",
      "type": "function"
    },
    {
      "inputs": [],
      "name": "MAX_SIZE",
      "outputs": [
        {
          "internalType": "uint256",
          "name": "",
          "type": "uint256"
        }
      ],
      "stateMutability": "view",
      "type": "function"
    },
    {
      "inputs": [
        {
          "internalType": "address",
          "name": "to",
          "type": "address"
        },
        {
          "internalType": "uint256",
          "name": "tokenId",
          "type": "uint256"
        }
      ],
      "name": "approve",
      "outputs": [],
      "stateMutability": "nonpayable",
      "type": "function"
    },
    {
      "inputs": [
        {
          "internalType": "address",
          "name": "owner",
          "type": "address"
        }
      ],
      "name": "balanceOf",
      "outputs": [
        {
          "internalType": "uint256",
          "name": "",
          "type": "uint256"
        }
      ],
      "stateMutability": "view",
      "type": "function"
    },
    {
      "inputs": [
        {
          "internalType": "uint256",
          "name": "tokenId",
          "type": "uint256"
        }
      ],
      "name": "getApproved",
      "outputs": [
        {
          "internalType": "address",
          "name": "",
          "type": "address"
        }
      ],
      "stateMutability": "view",
      "type": "function"
    },
    {
      "inputs": [],
      "name": "getCurrentTokenTracker",
      "outputs": [
        {
          "internalType": "uint256",
          "name": "",
          "type": "uint256"
        }
      ],
      "stateMutability": "view",
      "type": "function"
    },
    {
      "inputs": [
        {
          "internalType": "uint256",
          "name": "_tokenId",
          "type": "uint256"
        }
      ],
      "name": "getRaribleV2Royalties",
      "outputs": [
        {
          "components": [
            {
              "internalType": "address payable",
              "name": "account",
              "type": "address"
            },
            {
              "internalType": "uint96",
              "name": "value",
              "type": "uint96"
            }
          ],
          "internalType": "struct LibPart.Part[]",
          "name": "",
          "type": "tuple[]"
        }
      ],
      "stateMutability": "view",
      "type": "function"
    },
    {
      "inputs": [
        {
          "internalType": "bytes32",
          "name": "role",
          "type": "bytes32"
        }
      ],
      "name": "getRoleAdmin",
      "outputs": [
        {
          "internalType": "bytes32",
          "name": "",
          "type": "bytes32"
        }
      ],
      "stateMutability": "view",
      "type": "function"
    },
    {
      "inputs": [
        {
          "internalType": "bytes32",
          "name": "role",
          "type": "bytes32"
        },
        {
          "internalType": "uint256",
          "name": "index",
          "type": "uint256"
        }
      ],
      "name": "getRoleMember",
      "outputs": [
        {
          "internalType": "address",
          "name": "",
          "type": "address"
        }
      ],
      "stateMutability": "view",
      "type": "function"
    },
    {
      "inputs": [
        {
          "internalType": "bytes32",
          "name": "role",
          "type": "bytes32"
        }
      ],
      "name": "getRoleMemberCount",
      "outputs": [
        {
          "internalType": "uint256",
          "name": "",
          "type": "uint256"
        }
      ],
      "stateMutability": "view",
      "type": "function"
    },
    {
      "inputs": [
        {
          "internalType": "uint256",
          "name": "tokenId",
          "type": "uint256"
        }
      ],
      "name": "getSize",
      "outputs": [
        {
          "internalType": "uint256",
          "name": "",
          "type": "uint256"
        }
      ],
      "stateMutability": "view",
      "type": "function"
    },
    {
      "inputs": [
        {
          "internalType": "bytes32",
          "name": "role",
          "type": "bytes32"
        },
        {
          "internalType": "address",
          "name": "account",
          "type": "address"
        }
      ],
      "name": "grantRole",
      "outputs": [],
      "stateMutability": "nonpayable",
      "type": "function"
    },
    {
      "inputs": [
        {
          "internalType": "uint256",
          "name": "tokenId",
          "type": "uint256"
        }
      ],
      "name": "grow",
      "outputs": [],
      "stateMutability": "nonpayable",
      "type": "function"
    },
    {
      "inputs": [
        {
          "internalType": "bytes32",
          "name": "role",
          "type": "bytes32"
        },
        {
          "internalType": "address",
          "name": "account",
          "type": "address"
        }
      ],
      "name": "hasRole",
      "outputs": [
        {
          "internalType": "bool",
          "name": "",
          "type": "bool"
        }
      ],
      "stateMutability": "view",
      "type": "function"
    },
    {
      "inputs": [
        {
          "internalType": "address",
          "name": "owner",
          "type": "address"
        },
        {
          "internalType": "address",
          "name": "operator",
          "type": "address"
        }
      ],
      "name": "isApprovedForAll",
      "outputs": [
        {
          "internalType": "bool",
          "name": "",
          "type": "bool"
        }
      ],
      "stateMutability": "view",
      "type": "function"
    },
    {
      "inputs": [
        {
          "internalType": "address",
          "name": "to",
          "type": "address"
        }
      ],
      "name": "mint",
      "outputs": [],
      "stateMutability": "nonpayable",
      "type": "function"
    },
    {
      "inputs": [],
      "name": "name",
      "outputs": [
        {
          "internalType": "string",
          "name": "",
          "type": "string"
        }
      ],
      "stateMutability": "view",
      "type": "function"
    },
    {
      "inputs": [],
      "name": "owner",
      "outputs": [
        {
          "internalType": "address",
          "name": "",
          "type": "address"
        }
      ],
      "stateMutability": "view",
      "type": "function"
    },
    {
      "inputs": [
        {
          "internalType": "uint256",
          "name": "tokenId",
          "type": "uint256"
        }
      ],
      "name": "ownerOf",
      "outputs": [
        {
          "internalType": "address",
          "name": "",
          "type": "address"
        }
      ],
      "stateMutability": "view",
      "type": "function"
    },
    {
      "inputs": [],
      "name": "pcCount",
      "outputs": [
        {
          "internalType": "uint256",
          "name": "",
          "type": "uint256"
        }
      ],
      "stateMutability": "view",
      "type": "function"
    },
    {
      "inputs": [],
      "name": "pcDeadline",
      "outputs": [
        {
          "internalType": "uint256",
          "name": "",
          "type": "uint256"
        }
      ],
      "stateMutability": "view",
      "type": "function"
    },
    {
      "inputs": [
        {
          "internalType": "address",
          "name": "",
          "type": "address"
        }
      ],
      "name": "pcEligible",
      "outputs": [
        {
          "internalType": "uint256",
          "name": "",
          "type": "uint256"
        }
      ],
      "stateMutability": "view",
      "type": "function"
    },
    {
      "inputs": [],
      "name": "renounceOwnership",
      "outputs": [],
      "stateMutability": "nonpayable",
      "type": "function"
    },
    {
      "inputs": [
        {
          "internalType": "bytes32",
          "name": "role",
          "type": "bytes32"
        },
        {
          "internalType": "address",
          "name": "account",
          "type": "address"
        }
      ],
      "name": "renounceRole",
      "outputs": [],
      "stateMutability": "nonpayable",
      "type": "function"
    },
    {
      "inputs": [],
      "name": "revealed",
      "outputs": [
        {
          "internalType": "bool",
          "name": "",
          "type": "bool"
        }
      ],
      "stateMutability": "view",
      "type": "function"
    },
    {
      "inputs": [
        {
          "internalType": "bytes32",
          "name": "role",
          "type": "bytes32"
        },
        {
          "internalType": "address",
          "name": "account",
          "type": "address"
        }
      ],
      "name": "revokeRole",
      "outputs": [],
      "stateMutability": "nonpayable",
      "type": "function"
    },
    {
      "inputs": [
        {
          "internalType": "uint256",
          "name": "_tokenId",
          "type": "uint256"
        },
        {
          "internalType": "uint256",
          "name": "_salePrice",
          "type": "uint256"
        }
      ],
      "name": "royaltyInfo",
      "outputs": [
        {
          "internalType": "address",
          "name": "receiver",
          "type": "address"
        },
        {
          "internalType": "uint256",
          "name": "royaltyAmount",
          "type": "uint256"
        }
      ],
      "stateMutability": "view",
      "type": "function"
    },
    {
      "inputs": [
        {
          "internalType": "address",
          "name": "from",
          "type": "address"
        },
        {
          "internalType": "address",
          "name": "to",
          "type": "address"
        },
        {
          "internalType": "uint256",
          "name": "tokenId",
          "type": "uint256"
        }
      ],
      "name": "safeTransferFrom",
      "outputs": [],
      "stateMutability": "nonpayable",
      "type": "function"
    },
    {
      "inputs": [
        {
          "internalType": "address",
          "name": "from",
          "type": "address"
        },
        {
          "internalType": "address",
          "name": "to",
          "type": "address"
        },
        {
          "internalType": "uint256",
          "name": "tokenId",
          "type": "uint256"
        },
        {
          "internalType": "bytes",
          "name": "_data",
          "type": "bytes"
        }
      ],
      "name": "safeTransferFrom",
      "outputs": [],
      "stateMutability": "nonpayable",
      "type": "function"
    },
    {
      "inputs": [
        {
          "internalType": "address",
          "name": "operator",
          "type": "address"
        },
        {
          "internalType": "bool",
          "name": "approved",
          "type": "bool"
        }
      ],
      "name": "setApprovalForAll",
      "outputs": [],
      "stateMutability": "nonpayable",
      "type": "function"
    },
    {
      "inputs": [
        {
          "internalType": "uint256",
          "name": "_deadline",
          "type": "uint256"
        }
      ],
      "name": "setPcDeadline",
      "outputs": [],
      "stateMutability": "nonpayable",
      "type": "function"
    },
    {
      "inputs": [
        {
          "internalType": "string",
          "name": "_prov",
          "type": "string"
        }
      ],
      "name": "setProvenanceHash",
      "outputs": [],
      "stateMutability": "nonpayable",
      "type": "function"
    },
    {
      "inputs": [
        {
          "internalType": "bytes4",
          "name": "interfaceId",
          "type": "bytes4"
        }
      ],
      "name": "supportsInterface",
      "outputs": [
        {
          "internalType": "bool",
          "name": "",
          "type": "bool"
        }
      ],
      "stateMutability": "view",
      "type": "function"
    },
    {
      "inputs": [],
      "name": "symbol",
      "outputs": [
        {
          "internalType": "string",
          "name": "",
          "type": "string"
        }
      ],
      "stateMutability": "view",
      "type": "function"
    },
    {
      "inputs": [
        {
          "internalType": "uint256",
          "name": "index",
          "type": "uint256"
        }
      ],
      "name": "tokenByIndex",
      "outputs": [
        {
          "internalType": "uint256",
          "name": "",
          "type": "uint256"
        }
      ],
      "stateMutability": "view",
      "type": "function"
    },
    {
      "inputs": [
        {
          "internalType": "address",
          "name": "owner",
          "type": "address"
        },
        {
          "internalType": "uint256",
          "name": "index",
          "type": "uint256"
        }
      ],
      "name": "tokenOfOwnerByIndex",
      "outputs": [
        {
          "internalType": "uint256",
          "name": "",
          "type": "uint256"
        }
      ],
      "stateMutability": "view",
      "type": "function"
    },
    {
      "inputs": [
        {
          "internalType": "uint256",
          "name": "tokenId",
          "type": "uint256"
        }
      ],
      "name": "tokenURI",
      "outputs": [
        {
          "internalType": "string",
          "name": "",
          "type": "string"
        }
      ],
      "stateMutability": "view",
      "type": "function"
    },
    {
      "inputs": [],
      "name": "totalSupply",
      "outputs": [
        {
          "internalType": "uint256",
          "name": "",
          "type": "uint256"
        }
      ],
      "stateMutability": "view",
      "type": "function"
    },
    {
      "inputs": [
        {
          "internalType": "address",
          "name": "from",
          "type": "address"
        },
        {
          "internalType": "address",
          "name": "to",
          "type": "address"
        },
        {
          "internalType": "uint256",
          "name": "tokenId",
          "type": "uint256"
        }
      ],
      "name": "transferFrom",
      "outputs": [],
      "stateMutability": "nonpayable",
      "type": "function"
    },
    {
      "inputs": [
        {
          "internalType": "address",
          "name": "newOwner",
          "type": "address"
        }
      ],
      "name": "transferOwnership",
      "outputs": [],
      "stateMutability": "nonpayable",
      "type": "function"
    },
    {
      "inputs": [
        {
          "internalType": "address payable",
          "name": "_royaltyReceiver",
          "type": "address"
        },
        {
          "internalType": "uint96",
          "name": "_royaltyBasisPoints",
          "type": "uint96"
        }
      ],
      "name": "updateRoyalty",
      "outputs": [],
      "stateMutability": "nonpayable",
      "type": "function"
    },
    {
      "inputs": [
        {
          "internalType": "string",
          "name": "_newBaseURI",
          "type": "string"
        },
        {
          "internalType": "string",
          "name": "_newUnrevealedURI",
          "type": "string"
        },
        {
          "internalType": "bool",
          "name": "_revealed",
          "type": "bool"
        }
      ],
      "name": "updateURI",
      "outputs": [],
      "stateMutability": "nonpayable",
      "type": "function"
    }
  ],
  "bytecode": "0x608060405260006014553480156200001657600080fd5b50604051620033b5380380620033b583398101604081905262000039916200049f565b845185908590620000529060029060208501906200032c565b508051620000689060039060208401906200032c565b505050620000856200007f620000f560201b60201c565b620000f9565b620000926000336200014b565b620000be7f9f2df0fed2c77648de5860a4cc508cd0818c85b8b8a1ab4ceeef8d981c8956a6336200014b565b8251620000d390600e9060208601906200032c565b50600f805460ff19169055620000ea82826200015b565b5050505050620005b2565b3390565b600c80546001600160a01b038381166001600160a01b0319831681179093556040519116919082907f8be0079c531659141344cd1fd0a4f28419497f9722a3daafe3b4186f6b6457e090600090a35050565b620001578282620001d7565b5050565b6103e8816001600160601b03161115620001a45760405162461bcd60e51b815260206004820152600660248201526522269d102aa960d11b604482015260640160405180910390fd5b6001600160601b03166001600160a01b039091166c01000000000000000000000000026001600160601b03191617601655565b620001ee82826200021a60201b620014211760201c565b600082815260016020908152604090912062000215918390620014a5620002ba821b17901c565b505050565b6000828152602081815260408083206001600160a01b038516845290915290205460ff1662000157576000828152602081815260408083206001600160a01b03851684529091529020805460ff19166001179055620002763390565b6001600160a01b0316816001600160a01b0316837f2f8788117e7eff1d82e926ec794901d17c78024a50270940304540a733656f0d60405160405180910390a45050565b6000620002d1836001600160a01b038416620002da565b90505b92915050565b60008181526001830160205260408120546200032357508154600181810184556000848152602080822090930184905584548482528286019093526040902091909155620002d4565b506000620002d4565b8280546200033a9062000575565b90600052602060002090601f0160209004810192826200035e5760008555620003a9565b82601f106200037957805160ff1916838001178555620003a9565b82800160010185558215620003a9579182015b82811115620003a95782518255916020019190600101906200038c565b50620003b7929150620003bb565b5090565b5b80821115620003b75760008155600101620003bc565b634e487b7160e01b600052604160045260246000fd5b600082601f830112620003fa57600080fd5b81516001600160401b0380821115620004175762000417620003d2565b604051601f8301601f19908116603f01168101908282118183101715620004425762000442620003d2565b816040528381526020925086838588010111156200045f57600080fd5b600091505b8382101562000483578582018301518183018401529082019062000464565b83821115620004955760008385830101525b9695505050505050565b600080600080600060a08688031215620004b857600080fd5b85516001600160401b0380821115620004d057600080fd5b620004de89838a01620003e8565b96506020880151915080821115620004f557600080fd5b6200050389838a01620003e8565b955060408801519150808211156200051a57600080fd5b506200052988828901620003e8565b606088015190945090506001600160a01b03811681146200054957600080fd5b60808701519092506001600160601b03811681146200056757600080fd5b809150509295509295909350565b600181811c908216806200058a57607f821691505b60208210811415620005ac57634e487b7160e01b600052602260045260246000fd5b50919050565b612df380620005c26000396000f3fe608060405234801561001057600080fd5b50600436106102695760003560e01c806370a0823111610151578063b88d4fde116100c3578063daa83c6d11610087578063daa83c6d14610561578063e93723d414610574578063e985e9c51461057d578063f2fde38b146105b9578063f434a8dc146105cc578063f8cd36cc146105df57600080fd5b8063b88d4fde146104f5578063c87b56dd14610508578063ca15c8731461051b578063cad96cca1461052e578063d547741f1461054e57600080fd5b80638da5cb5b116101155780638da5cb5b1461049b5780639010d07c146104ac57806391d14854146104bf57806395d89b41146104d2578063a217fddf146104da578063a22cb465146104e257600080fd5b806370a0823114610467578063715018a61461047a57806383b657e9146104825780638503df7c1461048b5780638d67799e1461049357600080fd5b806328531f06116101ea57806336568abe116101ae57806336568abe146103fb57806342842e0e1461040e5780634f6ccce71461042157806351830227146104345780636352211e146104415780636a6278421461045457600080fd5b806328531f06146103705780632a55205a146103835780632d0b7890146103b55780632f2ff15d146103d55780632f745c59146103e857600080fd5b80631096952311610231578063109695231461030c578063162396121461031f57806318160ddd1461033257806323b872dd1461033a578063248a9ca31461034d57600080fd5b806301ffc9a71461026e578063023c23db1461029657806306fdde03146102b7578063081812fc146102cc578063095ea7b3146102f7575b600080fd5b61028161027c36600461260e565b6105e7565b60405190151581526020015b60405180910390f35b6102a96102a436600461262b565b61063a565b60405190815260200161028d565b6102bf6106a4565b60405161028d919061269c565b6102df6102da36600461262b565b610736565b6040516001600160a01b03909116815260200161028d565b61030a6103053660046126c4565b6107be565b005b61030a61031a366004612732565b6108d4565b61030a61032d366004612784565b6108f2565b600a546102a9565b61030a610348366004612805565b610930565b6102a961035b36600461262b565b60009081526020819052604090206001015490565b61030a61037e36600461262b565b610961565b610396610391366004612846565b610a9f565b604080516001600160a01b03909316835260208301919091520161028d565b6102a96103c3366004612868565b60126020526000908152604090205481565b61030a6103e3366004612885565b610b49565b6102a96103f63660046126c4565b610b6f565b61030a610409366004612885565b610c05565b61030a61041c366004612805565b610c83565b6102a961042f36600461262b565b610c9e565b600f546102819060ff1681565b6102df61044f36600461262b565b610d31565b61030a610462366004612868565b610da8565b6102a9610475366004612868565b610e13565b61030a610e9a565b6102a960135481565b6102a9610f00565b6102a9600581565b600c546001600160a01b03166102df565b6102df6104ba366004612846565b610f37565b6102816104cd366004612885565b610f56565b6102bf610f7f565b6102a9600081565b61030a6104f03660046128b5565b610f8e565b61030a610503366004612900565b610f99565b6102bf61051636600461262b565b610fcb565b6102a961052936600461262b565b611150565b61054161053c36600461262b565b611167565b60405161028d91906129e0565b61030a61055c366004612885565b61127a565b61030a61056f366004612a41565b6112a0565b6102a960145481565b61028161058b366004612a7b565b6001600160a01b03918216600090815260076020908152604080832093909416825291909152205460ff1690565b61030a6105c7366004612868565b6112b6565b61030a6105da36600461262b565b611381565b6102bf611393565b60006001600160e01b0319821663656cb66560e11b141561060a57506001919050565b6001600160e01b0319821663152a902d60e11b141561062b57506001919050565b610634826114ba565b92915050565b600061064560155490565b82106106915760405162461bcd60e51b815260206004820152601660248201527522269d103737b716b2bc34b9ba32b73a103a37b5b2b760511b60448201526064015b60405180910390fd5b5060009081526011602052604090205490565b6060600280546106b390612aa9565b80601f01602080910402602001604051908101604052809291908181526020018280546106df90612aa9565b801561072c5780601f106107015761010080835404028352916020019161072c565b820191906000526020600020905b81548152906001019060200180831161070f57829003601f168201915b5050505050905090565b6000610741826114df565b6107a25760405162461bcd60e51b815260206004820152602c60248201527f4552433732313a20617070726f76656420717565727920666f72206e6f6e657860448201526b34b9ba32b73a103a37b5b2b760a11b6064820152608401610688565b506000908152600660205260409020546001600160a01b031690565b60006107c982610d31565b9050806001600160a01b0316836001600160a01b031614156108375760405162461bcd60e51b815260206004820152602160248201527f4552433732313a20617070726f76616c20746f2063757272656e74206f776e656044820152603960f91b6064820152608401610688565b336001600160a01b03821614806108535750610853813361058b565b6108c55760405162461bcd60e51b815260206004820152603860248201527f4552433732313a20617070726f76652063616c6c6572206973206e6f74206f7760448201527f6e6572206e6f7220617070726f76656420666f7220616c6c00000000000000006064820152608401610688565b6108cf83836114fc565b505050565b60006108e0813361156a565b6108ec60108484612568565b50505050565b60006108fe813361156a565b61090a600d8787612568565b50610917600e8585612568565b5050600f805460ff191691151591909117905550505050565b61093a33826115ce565b6109565760405162461bcd60e51b815260040161068890612ae4565b6108cf8383836116b4565b7f5e85f5abc2afeaa95a04b112a539768e8d8c732bcaee451e7648bb5318a5fbaa61098c813361156a565b610995826114df565b6109e15760405162461bcd60e51b815260206004820152601960248201527f444d3a206e6f6e2d6578697374696e6720746f6b656e204964000000000000006044820152606401610688565b600082815260116020526040902054600511610a2e5760405162461bcd60e51b815260206004820152600c60248201526b444d3a206d61782073697a6560a01b6044820152606401610688565b600082815260116020526040902054610a48906001612b4b565b60008381526011602052604090819020829055517f2badeccc550e9a9e1f0a6519ed78549ed57e0debb5dec3231176607b0cab8bf091610a9391859190918252602082015260400190565b60405180910390a15050565b600080610aab846114df565b610af05760405162461bcd60e51b815260206004820152601660248201527522269d103737b716b2bc34b9ba34b733903a37b5b2b760511b6044820152606401610688565b6016546001600160601b0316610b0857600080610b3d565b6016546001600160a01b03600160601b8204169061271090610b33906001600160601b031686612b63565b610b3d9190612b98565b915091505b9250929050565b600082815260208190526040902060010154610b65813361156a565b6108cf838361185f565b6000610b7a83610e13565b8210610bdc5760405162461bcd60e51b815260206004820152602b60248201527f455243373231456e756d657261626c653a206f776e657220696e646578206f7560448201526a74206f6620626f756e647360a81b6064820152608401610688565b506001600160a01b03919091166000908152600860209081526040808320938352929052205490565b6001600160a01b0381163314610c755760405162461bcd60e51b815260206004820152602f60248201527f416363657373436f6e74726f6c3a2063616e206f6e6c792072656e6f756e636560448201526e103937b632b9903337b91039b2b63360891b6064820152608401610688565b610c7f8282611881565b5050565b6108cf83838360405180602001604052806000815250610f99565b6000610ca9600a5490565b8210610d0c5760405162461bcd60e51b815260206004820152602c60248201527f455243373231456e756d657261626c653a20676c6f62616c20696e646578206f60448201526b7574206f6620626f756e647360a01b6064820152608401610688565b600a8281548110610d1f57610d1f612bac565b90600052602060002001549050919050565b6000818152600460205260408120546001600160a01b0316806106345760405162461bcd60e51b815260206004820152602960248201527f4552433732313a206f776e657220717565727920666f72206e6f6e657869737460448201526832b73a103a37b5b2b760b91b6064820152608401610688565b7f9f2df0fed2c77648de5860a4cc508cd0818c85b8b8a1ab4ceeef8d981c8956a6610dd3813361156a565b600160116000610de260155490565b8152602081019190915260400160002055610e0582610e0060155490565b6118a3565b610c7f601580546001019055565b60006001600160a01b038216610e7e5760405162461bcd60e51b815260206004820152602a60248201527f4552433732313a2062616c616e636520717565727920666f7220746865207a65604482015269726f206164647265737360b01b6064820152608401610688565b506001600160a01b031660009081526005602052604090205490565b600c546001600160a01b03163314610ef45760405162461bcd60e51b815260206004820181905260248201527f4f776e61626c653a2063616c6c6572206973206e6f7420746865206f776e65726044820152606401610688565b610efe60006119e2565b565b60007f9f2df0fed2c77648de5860a4cc508cd0818c85b8b8a1ab4ceeef8d981c8956a6610f2d813361156a565b60155491505b5090565b6000828152600160205260408120610f4f9083611a34565b9392505050565b6000918252602082815260408084206001600160a01b0393909316845291905290205460ff1690565b6060600380546106b390612aa9565b610c7f338383611a40565b610fa333836115ce565b610fbf5760405162461bcd60e51b815260040161068890612ae4565b6108ec84848484611b0f565b6060610fd6826114df565b61101b5760405162461bcd60e51b815260206004820152601660248201527522269d103737b716b2bc34b9ba32b73a103a37b5b2b760511b6044820152606401610688565b600f5460ff166110b757600e805461103290612aa9565b80601f016020809104026020016040519081016040528092919081815260200182805461105e90612aa9565b80156110ab5780601f10611080576101008083540402835291602001916110ab565b820191906000526020600020905b81548152906001019060200180831161108e57829003601f168201915b50505050509050919050565b60006110c1611b42565b604080518082019091526005815264173539b7b760d91b60208201528151919250906110fc5760405180602001604052806000815250611143565b600084815260116020526040902054829061111690611b51565b61111f86611b51565b836040516020016111339493929190612bc2565b6040516020818303038152906040525b949350505050565b919050565b600081815260016020526040812061063490611c4f565b6060611172826114df565b6111b75760405162461bcd60e51b815260206004820152601660248201527522269d103737b716b2bc34b9ba34b733903a37b5b2b760511b6044820152606401610688565b604080516001808252818301909252600091816020015b60408051808201909152600080825260208201528152602001906001900390816111ce5790505090506016600c9054906101000a90046001600160a01b03168160008151811061122057611220612bac565b60209081029190910101516001600160a01b03909116905260165481516001600160601b0390911690829060009061125a5761125a612bac565b6020908102919091018101516001600160601b0390921691015292915050565b600082815260208190526040902060010154611296813361156a565b6108cf8383611881565b60006112ac813361156a565b6108cf8383611c59565b600c546001600160a01b031633146113105760405162461bcd60e51b815260206004820181905260248201527f4f776e61626c653a2063616c6c6572206973206e6f7420746865206f776e65726044820152606401610688565b6001600160a01b0381166113755760405162461bcd60e51b815260206004820152602660248201527f4f776e61626c653a206e6577206f776e657220697320746865207a65726f206160448201526564647265737360d01b6064820152608401610688565b61137e816119e2565b50565b600061138d813361156a565b50601455565b601080546113a090612aa9565b80601f01602080910402602001604051908101604052809291908181526020018280546113cc90612aa9565b80156114195780601f106113ee57610100808354040283529160200191611419565b820191906000526020600020905b8154815290600101906020018083116113fc57829003601f168201915b505050505081565b61142b8282610f56565b610c7f576000828152602081815260408083206001600160a01b03851684529091529020805460ff191660011790556114613390565b6001600160a01b0316816001600160a01b0316837f2f8788117e7eff1d82e926ec794901d17c78024a50270940304540a733656f0d60405160405180910390a45050565b6000610f4f836001600160a01b038416611ccc565b60006001600160e01b0319821663780e9d6360e01b1480610634575061063482611d1b565b6000908152600460205260409020546001600160a01b0316151590565b600081815260066020526040902080546001600160a01b0319166001600160a01b038416908117909155819061153182610d31565b6001600160a01b03167f8c5be1e5ebec7d5bd14f71427d1e84f3dd0314c0f7b2291e5b200ac8c7c3b92560405160405180910390a45050565b6115748282610f56565b610c7f5761158c816001600160a01b03166014611d5b565b611597836020611d5b565b6040516020016115a8929190612c29565b60408051601f198184030181529082905262461bcd60e51b82526106889160040161269c565b60006115d9826114df565b61163a5760405162461bcd60e51b815260206004820152602c60248201527f4552433732313a206f70657261746f7220717565727920666f72206e6f6e657860448201526b34b9ba32b73a103a37b5b2b760a11b6064820152608401610688565b600061164583610d31565b9050806001600160a01b0316846001600160a01b031614806116805750836001600160a01b031661167584610736565b6001600160a01b0316145b8061114357506001600160a01b0380821660009081526007602090815260408083209388168352929052205460ff16611143565b826001600160a01b03166116c782610d31565b6001600160a01b03161461172f5760405162461bcd60e51b815260206004820152602960248201527f4552433732313a207472616e73666572206f6620746f6b656e2074686174206960448201526839903737ba1037bbb760b91b6064820152608401610688565b6001600160a01b0382166117915760405162461bcd60e51b8152602060048201526024808201527f4552433732313a207472616e7366657220746f20746865207a65726f206164646044820152637265737360e01b6064820152608401610688565b61179c838383611ef7565b6117a76000826114fc565b6001600160a01b03831660009081526005602052604081208054600192906117d0908490612c9e565b90915550506001600160a01b03821660009081526005602052604081208054600192906117fe908490612b4b565b909155505060008181526004602052604080822080546001600160a01b0319166001600160a01b0386811691821790925591518493918716917fddf252ad1be2c89b69c2b068fc378daa952ba7f163c4a11628f55a4df523b3ef91a4505050565b6118698282611421565b60008281526001602052604090206108cf90826114a5565b61188b8282611f16565b60008281526001602052604090206108cf9082611f7b565b6001600160a01b0382166118f95760405162461bcd60e51b815260206004820181905260248201527f4552433732313a206d696e7420746f20746865207a65726f20616464726573736044820152606401610688565b611902816114df565b1561194f5760405162461bcd60e51b815260206004820152601c60248201527f4552433732313a20746f6b656e20616c7265616479206d696e746564000000006044820152606401610688565b61195b60008383611ef7565b6001600160a01b0382166000908152600560205260408120805460019290611984908490612b4b565b909155505060008181526004602052604080822080546001600160a01b0319166001600160a01b03861690811790915590518392907fddf252ad1be2c89b69c2b068fc378daa952ba7f163c4a11628f55a4df523b3ef908290a45050565b600c80546001600160a01b038381166001600160a01b0319831681179093556040519116919082907f8be0079c531659141344cd1fd0a4f28419497f9722a3daafe3b4186f6b6457e090600090a35050565b6000610f4f8383611f90565b816001600160a01b0316836001600160a01b03161415611aa25760405162461bcd60e51b815260206004820152601960248201527f4552433732313a20617070726f766520746f2063616c6c6572000000000000006044820152606401610688565b6001600160a01b03838116600081815260076020908152604080832094871680845294825291829020805460ff191686151590811790915591519182527f17307eab39ab6107e8899845ad3d59bd9653f200f220920489ca2b5937696c31910160405180910390a3505050565b611b1a8484846116b4565b611b2684848484611fba565b6108ec5760405162461bcd60e51b815260040161068890612cb5565b6060600d80546106b390612aa9565b606081611b755750506040805180820190915260018152600360fc1b602082015290565b8160005b8115611b9f5780611b8981612d07565b9150611b989050600a83612b98565b9150611b79565b60008167ffffffffffffffff811115611bba57611bba6128ea565b6040519080825280601f01601f191660200182016040528015611be4576020820181803683370190505b5090505b841561114357611bf9600183612c9e565b9150611c06600a86612d22565b611c11906030612b4b565b60f81b818381518110611c2657611c26612bac565b60200101906001600160f81b031916908160001a905350611c48600a86612b98565b9450611be8565b6000610634825490565b6103e8816001600160601b03161115611c9d5760405162461bcd60e51b815260206004820152600660248201526522269d102aa960d11b6044820152606401610688565b6001600160601b03166001600160a01b03909116600160601b026bffffffffffffffffffffffff191617601655565b6000818152600183016020526040812054611d1357508154600181810184556000848152602080822090930184905584548482528286019093526040902091909155610634565b506000610634565b60006001600160e01b031982166380ac58cd60e01b1480611d4c57506001600160e01b03198216635b5e139f60e01b145b806106345750610634826120b8565b60606000611d6a836002612b63565b611d75906002612b4b565b67ffffffffffffffff811115611d8d57611d8d6128ea565b6040519080825280601f01601f191660200182016040528015611db7576020820181803683370190505b509050600360fc1b81600081518110611dd257611dd2612bac565b60200101906001600160f81b031916908160001a905350600f60fb1b81600181518110611e0157611e01612bac565b60200101906001600160f81b031916908160001a9053506000611e25846002612b63565b611e30906001612b4b565b90505b6001811115611ea8576f181899199a1a9b1b9c1cb0b131b232b360811b85600f1660108110611e6457611e64612bac565b1a60f81b828281518110611e7a57611e7a612bac565b60200101906001600160f81b031916908160001a90535060049490941c93611ea181612d36565b9050611e33565b508315610f4f5760405162461bcd60e51b815260206004820181905260248201527f537472696e67733a20686578206c656e67746820696e73756666696369656e746044820152606401610688565b611f028383836120dd565b6014544210156108cf576108cf8383612195565b611f208282610f56565b15610c7f576000828152602081815260408083206001600160a01b0385168085529252808320805460ff1916905551339285917ff6391f5c32d9c69d2a47ea670b442974b53935d1edc7fd64eb21e047a839171b9190a45050565b6000610f4f836001600160a01b0384166122b0565b6000826000018281548110611fa757611fa7612bac565b9060005260206000200154905092915050565b60006001600160a01b0384163b156120ad57604051630a85bd0160e11b81526001600160a01b0385169063150b7a0290611ffe903390899088908890600401612d4d565b6020604051808303816000875af1925050508015612039575060408051601f3d908101601f1916820190925261203691810190612d8a565b60015b612093573d808015612067576040519150601f19603f3d011682016040523d82523d6000602084013e61206c565b606091505b50805161208b5760405162461bcd60e51b815260040161068890612cb5565b805181602001fd5b6001600160e01b031916630a85bd0160e11b149050611143565b506001949350505050565b60006001600160e01b03198216635a05180f60e01b14806106345750610634826123a3565b6001600160a01b0383166121385761213381600a80546000838152600b60205260408120829055600182018355919091527fc65a7bb8d6351c1cf70c95a316cc6a92839c986682d98bc35f958f4883f9d2a80155565b61215b565b816001600160a01b0316836001600160a01b03161461215b5761215b83826123d8565b6001600160a01b038216612172576108cf81612475565b826001600160a01b0316826001600160a01b0316146108cf576108cf8282612524565b6001600160a01b0380831660008181526012602052604080822054938516825290205490156121f957600260016121cb86610e13565b6121d59190612c9e565b6121df9190612b98565b6001600160a01b0385166000908152601260205260409020555b6001600160a01b0383161561224257600261221384610e13565b61221e906001612b4b565b6122289190612b98565b6001600160a01b0384166000908152601260205260409020555b6001600160a01b038416600090815260126020526040902054601354612269908490612c9e565b6122739190612b4b565b60138190556001600160a01b0384166000908152601260205260409020549061229d908390612c9e565b6122a79190612b4b565b60135550505050565b600081815260018301602052604081205480156123995760006122d4600183612c9e565b85549091506000906122e890600190612c9e565b905081811461234d57600086600001828154811061230857612308612bac565b906000526020600020015490508087600001848154811061232b5761232b612bac565b6000918252602080832090910192909255918252600188019052604090208390555b855486908061235e5761235e612da7565b600190038181906000526020600020016000905590558560010160008681526020019081526020016000206000905560019350505050610634565b6000915050610634565b60006001600160e01b03198216637965db0b60e01b148061063457506301ffc9a760e01b6001600160e01b0319831614610634565b600060016123e584610e13565b6123ef9190612c9e565b600083815260096020526040902054909150808214612442576001600160a01b03841660009081526008602090815260408083208584528252808320548484528184208190558352600990915290208190555b5060009182526009602090815260408084208490556001600160a01b039094168352600881528383209183525290812055565b600a5460009061248790600190612c9e565b6000838152600b6020526040812054600a80549394509092849081106124af576124af612bac565b9060005260206000200154905080600a83815481106124d0576124d0612bac565b6000918252602080832090910192909255828152600b9091526040808220849055858252812055600a80548061250857612508612da7565b6001900381819060005260206000200160009055905550505050565b600061252f83610e13565b6001600160a01b039093166000908152600860209081526040808320868452825280832085905593825260099052919091209190915550565b82805461257490612aa9565b90600052602060002090601f01602090048101928261259657600085556125dc565b82601f106125af5782800160ff198235161785556125dc565b828001600101855582156125dc579182015b828111156125dc5782358255916020019190600101906125c1565b50610f339291505b80821115610f3357600081556001016125e4565b6001600160e01b03198116811461137e57600080fd5b60006020828403121561262057600080fd5b8135610f4f816125f8565b60006020828403121561263d57600080fd5b5035919050565b60005b8381101561265f578181015183820152602001612647565b838111156108ec5750506000910152565b60008151808452612688816020860160208601612644565b601f01601f19169290920160200192915050565b602081526000610f4f6020830184612670565b6001600160a01b038116811461137e57600080fd5b600080604083850312156126d757600080fd5b82356126e2816126af565b946020939093013593505050565b60008083601f84011261270257600080fd5b50813567ffffffffffffffff81111561271a57600080fd5b602083019150836020828501011115610b4257600080fd5b6000806020838503121561274557600080fd5b823567ffffffffffffffff81111561275c57600080fd5b612768858286016126f0565b90969095509350505050565b8035801515811461114b57600080fd5b60008060008060006060868803121561279c57600080fd5b853567ffffffffffffffff808211156127b457600080fd5b6127c089838a016126f0565b909750955060208801359150808211156127d957600080fd5b506127e6888289016126f0565b90945092506127f9905060408701612774565b90509295509295909350565b60008060006060848603121561281a57600080fd5b8335612825816126af565b92506020840135612835816126af565b929592945050506040919091013590565b6000806040838503121561285957600080fd5b50508035926020909101359150565b60006020828403121561287a57600080fd5b8135610f4f816126af565b6000806040838503121561289857600080fd5b8235915060208301356128aa816126af565b809150509250929050565b600080604083850312156128c857600080fd5b82356128d3816126af565b91506128e160208401612774565b90509250929050565b634e487b7160e01b600052604160045260246000fd5b6000806000806080858703121561291657600080fd5b8435612921816126af565b93506020850135612931816126af565b925060408501359150606085013567ffffffffffffffff8082111561295557600080fd5b818701915087601f83011261296957600080fd5b81358181111561297b5761297b6128ea565b604051601f8201601f19908116603f011681019083821181831017156129a3576129a36128ea565b816040528281528a60208487010111156129bc57600080fd5b82602086016020830137600060208483010152809550505050505092959194509250565b602080825282518282018190526000919060409081850190868401855b82811015612a3457815180516001600160a01b031685528601516001600160601b03168685015292840192908501906001016129fd565b5091979650505050505050565b60008060408385031215612a5457600080fd5b8235612a5f816126af565b915060208301356001600160601b03811681146128aa57600080fd5b60008060408385031215612a8e57600080fd5b8235612a99816126af565b915060208301356128aa816126af565b600181811c90821680612abd57607f821691505b60208210811415612ade57634e487b7160e01b600052602260045260246000fd5b50919050565b60208082526031908201527f4552433732313a207472616e736665722063616c6c6572206973206e6f74206f6040820152701ddb995c881b9bdc88185c1c1c9bdd9959607a1b606082015260800190565b634e487b7160e01b600052601160045260246000fd5b60008219821115612b5e57612b5e612b35565b500190565b6000816000190483118215151615612b7d57612b7d612b35565b500290565b634e487b7160e01b600052601260045260246000fd5b600082612ba757612ba7612b82565b500490565b634e487b7160e01b600052603260045260246000fd5b60008551612bd4818460208a01612644565b855190830190612be8818360208a01612644565b602f60f81b91019081528451612c05816001840160208901612644565b8451910190612c1b816001840160208801612644565b016001019695505050505050565b7f416363657373436f6e74726f6c3a206163636f756e7420000000000000000000815260008351612c61816017850160208801612644565b7001034b99036b4b9b9b4b733903937b6329607d1b6017918401918201528351612c92816028840160208801612644565b01602801949350505050565b600082821015612cb057612cb0612b35565b500390565b60208082526032908201527f4552433732313a207472616e7366657220746f206e6f6e20455243373231526560408201527131b2b4bb32b91034b6b83632b6b2b73a32b960711b606082015260800190565b6000600019821415612d1b57612d1b612b35565b5060010190565b600082612d3157612d31612b82565b500690565b600081612d4557612d45612b35565b506000190190565b6001600160a01b0385811682528416602082015260408101839052608060608201819052600090612d8090830184612670565b9695505050505050565b600060208284031215612d9c57600080fd5b8151610f4f816125f8565b634e487b7160e01b600052603160045260246000fdfea26469706673582212209986a4e2df710640727d61b559013fa2a406887f2f7d54e0cc21cbf7593df54064736f6c634300080b0033",
  "linkReferences": {},
  "deployedLinkReferences": {}
}