{
  "_format": "hh-sol-artifact-1",
  "contractName": "NFTEnlargeningPill",
  "sourceName": "contracts/NFTEnlargeningPill.sol",
  "abi": [
    {
      "inputs": [
        {
          "internalType": "string",
          "name": "_name",
          "type": "string"
        },
        {
          "internalType": "string",
          "name": "_symbol",
          "type": "string"
        },
        {
          "internalType": "string",
          "name": "_metaURI",
          "type": "string"
        },
        {
          "internalType": "address",
          "name": "_collection",
          "type": "address"
        },
        {
          "internalType": "address payable",
          "name": "_royaltyReceiver",
          "type": "address"
        },
        {
          "internalType": "uint96",
          "name": "_royaltyBasisPoints",
          "type": "uint96"
        }
      ],
      "stateMutability": "nonpayable",
      "type": "constructor"
    },
    {
      "anonymous": false,
      "inputs": [
        {
          "indexed": true,
          "internalType": "address",
          "name": "owner",
          "type": "address"
        },
        {
          "indexed": true,
          "internalType": "address",
          "name": "approved",
          "type": "address"
        },
        {
          "indexed": true,
          "internalType": "uint256",
          "name": "tokenId",
          "type": "uint256"
        }
      ],
      "name": "Approval",
      "type": "event"
    },
    {
      "anonymous": false,
      "inputs": [
        {
          "indexed": true,
          "internalType": "address",
          "name": "owner",
          "type": "address"
        },
        {
          "indexed": true,
          "internalType": "address",
          "name": "operator",
          "type": "address"
        },
        {
          "indexed": false,
          "internalType": "bool",
          "name": "approved",
          "type": "bool"
        }
      ],
      "name": "ApprovalForAll",
      "type": "event"
    },
    {
      "anonymous": false,
      "inputs": [
        {
          "indexed": true,
          "internalType": "address",
          "name": "previousOwner",
          "type": "address"
        },
        {
          "indexed": true,
          "internalType": "address",
          "name": "newOwner",
          "type": "address"
        }
      ],
      "name": "OwnershipTransferred",
      "type": "event"
    },
    {
      "anonymous": false,
      "inputs": [
        {
          "indexed": false,
          "internalType": "uint256",
          "name": "NFTId",
          "type": "uint256"
        },
        {
          "indexed": false,
          "internalType": "uint256",
          "name": "pillId",
          "type": "uint256"
        },
        {
          "indexed": false,
          "internalType": "address",
          "name": "initiator",
          "type": "address"
        }
      ],
      "name": "PillUsed",
      "type": "event"
    },
    {
      "anonymous": false,
      "inputs": [
        {
          "indexed": true,
          "internalType": "bytes32",
          "name": "role",
          "type": "bytes32"
        },
        {
          "indexed": true,
          "internalType": "bytes32",
          "name": "previousAdminRole",
          "type": "bytes32"
        },
        {
          "indexed": true,
          "internalType": "bytes32",
          "name": "newAdminRole",
          "type": "bytes32"
        }
      ],
      "name": "RoleAdminChanged",
      "type": "event"
    },
    {
      "anonymous": false,
      "inputs": [
        {
          "indexed": true,
          "internalType": "bytes32",
          "name": "role",
          "type": "bytes32"
        },
        {
          "indexed": true,
          "internalType": "address",
          "name": "account",
          "type": "address"
        },
        {
          "indexed": true,
          "internalType": "address",
          "name": "sender",
          "type": "address"
        }
      ],
      "name": "RoleGranted",
      "type": "event"
    },
    {
      "anonymous": false,
      "inputs": [
        {
          "indexed": true,
          "internalType": "bytes32",
          "name": "role",
          "type": "bytes32"
        },
        {
          "indexed": true,
          "internalType": "address",
          "name": "account",
          "type": "address"
        },
        {
          "indexed": true,
          "internalType": "address",
          "name": "sender",
          "type": "address"
        }
      ],
      "name": "RoleRevoked",
      "type": "event"
    },
    {
      "anonymous": false,
      "inputs": [
        {
          "indexed": true,
          "internalType": "address",
          "name": "from",
          "type": "address"
        },
        {
          "indexed": true,
          "internalType": "address",
          "name": "to",
          "type": "address"
        },
        {
          "indexed": true,
          "internalType": "uint256",
          "name": "tokenId",
          "type": "uint256"
        }
      ],
      "name": "Transfer",
      "type": "event"
    },
    {
      "inputs": [],
      "name": "DEFAULT_ADMIN_ROLE",
      "outputs": [
        {
          "internalType": "bytes32",
          "name": "",
          "type": "bytes32"
        }
      ],
      "stateMutability": "view",
      "type": "function"
    },
    {
      "inputs": [
        {
          "internalType": "address",
          "name": "to",
          "type": "address"
        },
        {
          "internalType": "uint256",
          "name": "tokenId",
          "type": "uint256"
        }
      ],
      "name": "approve",
      "outputs": [],
      "stateMutability": "nonpayable",
      "type": "function"
    },
    {
      "inputs": [
        {
          "internalType": "address",
          "name": "owner",
          "type": "address"
        }
      ],
      "name": "balanceOf",
      "outputs": [
        {
          "internalType": "uint256",
          "name": "",
          "type": "uint256"
        }
      ],
      "stateMutability": "view",
      "type": "function"
    },
    {
      "inputs": [
        {
          "internalType": "uint256",
          "name": "tokenId",
          "type": "uint256"
        }
      ],
      "name": "burn",
      "outputs": [],
      "stateMutability": "nonpayable",
      "type": "function"
    },
    {
      "inputs": [
        {
          "internalType": "uint256",
          "name": "tokenId",
          "type": "uint256"
        }
      ],
      "name": "getApproved",
      "outputs": [
        {
          "internalType": "address",
          "name": "",
          "type": "address"
        }
      ],
      "stateMutability": "view",
      "type": "function"
    },
    {
      "inputs": [],
      "name": "getCurrentTokenTracker",
      "outputs": [
        {
          "internalType": "uint256",
          "name": "",
          "type": "uint256"
        }
      ],
      "stateMutability": "view",
      "type": "function"
    },
    {
      "inputs": [
        {
          "internalType": "uint256",
          "name": "_tokenId",
          "type": "uint256"
        }
      ],
      "name": "getRaribleV2Royalties",
      "outputs": [
        {
          "components": [
            {
              "internalType": "address payable",
              "name": "account",
              "type": "address"
            },
            {
              "internalType": "uint96",
              "name": "value",
              "type": "uint96"
            }
          ],
          "internalType": "struct LibPart.Part[]",
          "name": "",
          "type": "tuple[]"
        }
      ],
      "stateMutability": "view",
      "type": "function"
    },
    {
      "inputs": [
        {
          "internalType": "bytes32",
          "name": "role",
          "type": "bytes32"
        }
      ],
      "name": "getRoleAdmin",
      "outputs": [
        {
          "internalType": "bytes32",
          "name": "",
          "type": "bytes32"
        }
      ],
      "stateMutability": "view",
      "type": "function"
    },
    {
      "inputs": [
        {
          "internalType": "bytes32",
          "name": "role",
          "type": "bytes32"
        },
        {
          "internalType": "uint256",
          "name": "index",
          "type": "uint256"
        }
      ],
      "name": "getRoleMember",
      "outputs": [
        {
          "internalType": "address",
          "name": "",
          "type": "address"
        }
      ],
      "stateMutability": "view",
      "type": "function"
    },
    {
      "inputs": [
        {
          "internalType": "bytes32",
          "name": "role",
          "type": "bytes32"
        }
      ],
      "name": "getRoleMemberCount",
      "outputs": [
        {
          "internalType": "uint256",
          "name": "",
          "type": "uint256"
        }
      ],
      "stateMutability": "view",
      "type": "function"
    },
    {
      "inputs": [
        {
          "internalType": "bytes32",
          "name": "role",
          "type": "bytes32"
        },
        {
          "internalType": "address",
          "name": "account",
          "type": "address"
        }
      ],
      "name": "grantRole",
      "outputs": [],
      "stateMutability": "nonpayable",
      "type": "function"
    },
    {
      "inputs": [
        {
          "internalType": "bytes32",
          "name": "role",
          "type": "bytes32"
        },
        {
          "internalType": "address",
          "name": "account",
          "type": "address"
        }
      ],
      "name": "hasRole",
      "outputs": [
        {
          "internalType": "bool",
          "name": "",
          "type": "bool"
        }
      ],
      "stateMutability": "view",
      "type": "function"
    },
    {
      "inputs": [
        {
          "internalType": "address",
          "name": "owner",
          "type": "address"
        },
        {
          "internalType": "address",
          "name": "operator",
          "type": "address"
        }
      ],
      "name": "isApprovedForAll",
      "outputs": [
        {
          "internalType": "bool",
          "name": "",
          "type": "bool"
        }
      ],
      "stateMutability": "view",
      "type": "function"
    },
    {
      "inputs": [
        {
          "internalType": "address",
          "name": "to",
          "type": "address"
        }
      ],
      "name": "mint",
      "outputs": [],
      "stateMutability": "nonpayable",
      "type": "function"
    },
    {
      "inputs": [],
      "name": "name",
      "outputs": [
        {
          "internalType": "string",
          "name": "",
          "type": "string"
        }
      ],
      "stateMutability": "view",
      "type": "function"
    },
    {
      "inputs": [],
      "name": "owner",
      "outputs": [
        {
          "internalType": "address",
          "name": "",
          "type": "address"
        }
      ],
      "stateMutability": "view",
      "type": "function"
    },
    {
      "inputs": [
        {
          "internalType": "uint256",
          "name": "tokenId",
          "type": "uint256"
        }
      ],
      "name": "ownerOf",
      "outputs": [
        {
          "internalType": "address",
          "name": "",
          "type": "address"
        }
      ],
      "stateMutability": "view",
      "type": "function"
    },
    {
      "inputs": [],
      "name": "renounceOwnership",
      "outputs": [],
      "stateMutability": "nonpayable",
      "type": "function"
    },
    {
      "inputs": [
        {
          "internalType": "bytes32",
          "name": "role",
          "type": "bytes32"
        },
        {
          "internalType": "address",
          "name": "account",
          "type": "address"
        }
      ],
      "name": "renounceRole",
      "outputs": [],
      "stateMutability": "nonpayable",
      "type": "function"
    },
    {
      "inputs": [
        {
          "internalType": "bytes32",
          "name": "role",
          "type": "bytes32"
        },
        {
          "internalType": "address",
          "name": "account",
          "type": "address"
        }
      ],
      "name": "revokeRole",
      "outputs": [],
      "stateMutability": "nonpayable",
      "type": "function"
    },
    {
      "inputs": [
        {
          "internalType": "uint256",
          "name": "_tokenId",
          "type": "uint256"
        },
        {
          "internalType": "uint256",
          "name": "_salePrice",
          "type": "uint256"
        }
      ],
      "name": "royaltyInfo",
      "outputs": [
        {
          "internalType": "address",
          "name": "receiver",
          "type": "address"
        },
        {
          "internalType": "uint256",
          "name": "royaltyAmount",
          "type": "uint256"
        }
      ],
      "stateMutability": "view",
      "type": "function"
    },
    {
      "inputs": [
        {
          "internalType": "address",
          "name": "from",
          "type": "address"
        },
        {
          "internalType": "address",
          "name": "to",
          "type": "address"
        },
        {
          "internalType": "uint256",
          "name": "tokenId",
          "type": "uint256"
        }
      ],
      "name": "safeTransferFrom",
      "outputs": [],
      "stateMutability": "nonpayable",
      "type": "function"
    },
    {
      "inputs": [
        {
          "internalType": "address",
          "name": "from",
          "type": "address"
        },
        {
          "internalType": "address",
          "name": "to",
          "type": "address"
        },
        {
          "internalType": "uint256",
          "name": "tokenId",
          "type": "uint256"
        },
        {
          "internalType": "bytes",
          "name": "_data",
          "type": "bytes"
        }
      ],
      "name": "safeTransferFrom",
      "outputs": [],
      "stateMutability": "nonpayable",
      "type": "function"
    },
    {
      "inputs": [
        {
          "internalType": "address",
          "name": "operator",
          "type": "address"
        },
        {
          "internalType": "bool",
          "name": "approved",
          "type": "bool"
        }
      ],
      "name": "setApprovalForAll",
      "outputs": [],
      "stateMutability": "nonpayable",
      "type": "function"
    },
    {
      "inputs": [
        {
          "internalType": "bytes4",
          "name": "interfaceId",
          "type": "bytes4"
        }
      ],
      "name": "supportsInterface",
      "outputs": [
        {
          "internalType": "bool",
          "name": "",
          "type": "bool"
        }
      ],
      "stateMutability": "view",
      "type": "function"
    },
    {
      "inputs": [],
      "name": "symbol",
      "outputs": [
        {
          "internalType": "string",
          "name": "",
          "type": "string"
        }
      ],
      "stateMutability": "view",
      "type": "function"
    },
    {
      "inputs": [
        {
          "internalType": "uint256",
          "name": "index",
          "type": "uint256"
        }
      ],
      "name": "tokenByIndex",
      "outputs": [
        {
          "internalType": "uint256",
          "name": "",
          "type": "uint256"
        }
      ],
      "stateMutability": "view",
      "type": "function"
    },
    {
      "inputs": [
        {
          "internalType": "address",
          "name": "owner",
          "type": "address"
        },
        {
          "internalType": "uint256",
          "name": "index",
          "type": "uint256"
        }
      ],
      "name": "tokenOfOwnerByIndex",
      "outputs": [
        {
          "internalType": "uint256",
          "name": "",
          "type": "uint256"
        }
      ],
      "stateMutability": "view",
      "type": "function"
    },
    {
      "inputs": [
        {
          "internalType": "uint256",
          "name": "tokenId",
          "type": "uint256"
        }
      ],
      "name": "tokenURI",
      "outputs": [
        {
          "internalType": "string",
          "name": "",
          "type": "string"
        }
      ],
      "stateMutability": "view",
      "type": "function"
    },
    {
      "inputs": [],
      "name": "totalSupply",
      "outputs": [
        {
          "internalType": "uint256",
          "name": "",
          "type": "uint256"
        }
      ],
      "stateMutability": "view",
      "type": "function"
    },
    {
      "inputs": [
        {
          "internalType": "address",
          "name": "from",
          "type": "address"
        },
        {
          "internalType": "address",
          "name": "to",
          "type": "address"
        },
        {
          "internalType": "uint256",
          "name": "tokenId",
          "type": "uint256"
        }
      ],
      "name": "transferFrom",
      "outputs": [],
      "stateMutability": "nonpayable",
      "type": "function"
    },
    {
      "inputs": [
        {
          "internalType": "address",
          "name": "newOwner",
          "type": "address"
        }
      ],
      "name": "transferOwnership",
      "outputs": [],
      "stateMutability": "nonpayable",
      "type": "function"
    },
    {
      "inputs": [
        {
          "internalType": "address payable",
          "name": "_royaltyReceiver",
          "type": "address"
        },
        {
          "internalType": "uint96",
          "name": "_royaltyBasisPoints",
          "type": "uint96"
        }
      ],
      "name": "updateRoyalty",
      "outputs": [],
      "stateMutability": "nonpayable",
      "type": "function"
    },
    {
      "inputs": [
        {
          "internalType": "string",
          "name": "_metaURI",
          "type": "string"
        }
      ],
      "name": "updateURI",
      "outputs": [],
      "stateMutability": "nonpayable",
      "type": "function"
    },
    {
      "inputs": [
        {
          "internalType": "uint256",
          "name": "pillId",
          "type": "uint256"
        },
        {
          "internalType": "uint256",
          "name": "targetId",
          "type": "uint256"
        }
      ],
      "name": "use",
      "outputs": [],
      "stateMutability": "nonpayable",
      "type": "function"
    }
  ],
  "bytecode": "0x60806040523480156200001157600080fd5b5060405162002ee838038062002ee88339810160408190526200003491620004cd565b8551869086906200004d90600290602085019062000341565b5080516200006390600390602084019062000341565b505050620000806200007a6200010960201b60201c565b6200010d565b83516200009590600e90602087019062000341565b50600d80546001600160a01b0319166001600160a01b038516179055620000c56000620000bf3390565b6200015f565b620000f17f2f3a5455f35aeca177ac653592f277fbe2fbafef01081a2030451bb2fb41c91d336200015f565b620000fd82826200016f565b505050505050620005e7565b3390565b600c80546001600160a01b038381166001600160a01b0319831681179093556040519116919082907f8be0079c531659141344cd1fd0a4f28419497f9722a3daafe3b4186f6b6457e090600090a35050565b6200016b8282620001ec565b5050565b6103e8816001600160601b03161115620001b95760405162461bcd60e51b81526020600482015260076024820152662222a81d102aa960c91b604482015260640160405180910390fd5b6001600160601b03166001600160a01b039091166c01000000000000000000000000026001600160601b03191617601055565b6200020382826200022f60201b620011c61760201c565b60008281526001602090815260409091206200022a9183906200124a620002cf821b17901c565b505050565b6000828152602081815260408083206001600160a01b038516845290915290205460ff166200016b576000828152602081815260408083206001600160a01b03851684529091529020805460ff191660011790556200028b3390565b6001600160a01b0316816001600160a01b0316837f2f8788117e7eff1d82e926ec794901d17c78024a50270940304540a733656f0d60405160405180910390a45050565b6000620002e6836001600160a01b038416620002ef565b90505b92915050565b60008181526001830160205260408120546200033857508154600181810184556000848152602080822090930184905584548482528286019093526040902091909155620002e9565b506000620002e9565b8280546200034f90620005aa565b90600052602060002090601f016020900481019282620003735760008555620003be565b82601f106200038e57805160ff1916838001178555620003be565b82800160010185558215620003be579182015b82811115620003be578251825591602001919060010190620003a1565b50620003cc929150620003d0565b5090565b5b80821115620003cc5760008155600101620003d1565b634e487b7160e01b600052604160045260246000fd5b600082601f8301126200040f57600080fd5b81516001600160401b03808211156200042c576200042c620003e7565b604051601f8301601f19908116603f01168101908282118183101715620004575762000457620003e7565b816040528381526020925086838588010111156200047457600080fd5b600091505b8382101562000498578582018301518183018401529082019062000479565b83821115620004aa5760008385830101525b9695505050505050565b6001600160a01b0381168114620004ca57600080fd5b50565b60008060008060008060c08789031215620004e757600080fd5b86516001600160401b0380821115620004ff57600080fd5b6200050d8a838b01620003fd565b975060208901519150808211156200052457600080fd5b620005328a838b01620003fd565b965060408901519150808211156200054957600080fd5b506200055889828a01620003fd565b94505060608701516200056b81620004b4565b60808801519093506200057e81620004b4565b60a08801519092506001600160601b03811681146200059c57600080fd5b809150509295509295509295565b600181811c90821680620005bf57607f821691505b60208210811415620005e157634e487b7160e01b600052602260045260246000fd5b50919050565b6128f180620005f76000396000f3fe608060405234801561001057600080fd5b50600436106102115760003560e01c8063715018a611610125578063b88d4fde116100ad578063cad96cca1161007c578063cad96cca14610481578063d547741f146104a1578063daa83c6d146104b4578063e985e9c5146104c7578063f2fde38b1461050357600080fd5b8063b88d4fde14610435578063c30f4a5a14610448578063c87b56dd1461045b578063ca15c8731461046e57600080fd5b806391d14854116100f457806391d14854146103ec57806395d89b41146103ff5780639c806fae14610407578063a217fddf1461041a578063a22cb4651461042257600080fd5b8063715018a6146103b85780638503df7c146103c05780638da5cb5b146103c85780639010d07c146103d957600080fd5b80632f2ff15d116101a857806342966c681161017757806342966c68146103595780634f6ccce71461036c5780636352211e1461037f5780636a6278421461039257806370a08231146103a557600080fd5b80632f2ff15d1461030d5780632f745c591461032057806336568abe1461033357806342842e0e1461034657600080fd5b806318160ddd116101e457806318160ddd1461029357806323b872dd146102a5578063248a9ca3146102b85780632a55205a146102db57600080fd5b806301ffc9a71461021657806306fdde031461023e578063081812fc14610253578063095ea7b31461027e575b600080fd5b610229610224366004612232565b610516565b60405190151581526020015b60405180910390f35b610246610569565b60405161023591906122a7565b6102666102613660046122ba565b6105fb565b6040516001600160a01b039091168152602001610235565b61029161028c3660046122e8565b610688565b005b600a545b604051908152602001610235565b6102916102b3366004612314565b61079e565b6102976102c63660046122ba565b60009081526020819052604090206001015490565b6102ee6102e9366004612355565b6107d0565b604080516001600160a01b039093168352602083019190915201610235565b61029161031b366004612377565b610880565b61029761032e3660046122e8565b6108a6565b610291610341366004612377565b61093c565b610291610354366004612314565b6109ba565b6102916103673660046122ba565b6109d5565b61029761037a3660046122ba565b610a4f565b61026661038d3660046122ba565b610ae2565b6102916103a03660046123a7565b610b59565b6102976103b33660046123a7565b610ba4565b610291610c2b565b610297610c91565b600c546001600160a01b0316610266565b6102666103e7366004612355565b610cc8565b6102296103fa366004612377565b610ce7565b610246610d10565b610291610415366004612355565b610d1f565b610297600081565b6102916104303660046123c4565b610ede565b61029161044336600461240d565b610ee9565b6102916104563660046124ed565b610f21565b6102466104693660046122ba565b610f39565b61029761047c3660046122ba565b610f91565b61049461048f3660046122ba565b610fa8565b604051610235919061255f565b6102916104af366004612377565b6110c2565b6102916104c23660046125c0565b6110e8565b6102296104d53660046125fa565b6001600160a01b03918216600090815260076020908152604080832093909416825291909152205460ff1690565b6102916105113660046123a7565b6110fe565b60006001600160e01b0319821663656cb66560e11b141561053957506001919050565b6001600160e01b0319821663152a902d60e11b141561055a57506001919050565b6105638261125f565b92915050565b60606002805461057890612628565b80601f01602080910402602001604051908101604052809291908181526020018280546105a490612628565b80156105f15780601f106105c6576101008083540402835291602001916105f1565b820191906000526020600020905b8154815290600101906020018083116105d457829003601f168201915b5050505050905090565b600061060682611284565b61066c5760405162461bcd60e51b815260206004820152602c60248201527f4552433732313a20617070726f76656420717565727920666f72206e6f6e657860448201526b34b9ba32b73a103a37b5b2b760a11b60648201526084015b60405180910390fd5b506000908152600660205260409020546001600160a01b031690565b600061069382610ae2565b9050806001600160a01b0316836001600160a01b031614156107015760405162461bcd60e51b815260206004820152602160248201527f4552433732313a20617070726f76616c20746f2063757272656e74206f776e656044820152603960f91b6064820152608401610663565b336001600160a01b038216148061071d575061071d81336104d5565b61078f5760405162461bcd60e51b815260206004820152603860248201527f4552433732313a20617070726f76652063616c6c6572206973206e6f74206f7760448201527f6e6572206e6f7220617070726f76656420666f7220616c6c00000000000000006064820152608401610663565b61079983836112a1565b505050565b6107a9335b8261130f565b6107c55760405162461bcd60e51b815260040161066390612663565b6107998383836113f9565b6000806107dc84611284565b6108285760405162461bcd60e51b815260206004820152601c60248201527f4445503a20526f792e206e6f6e2d6578697374696e6720746f6b656e000000006044820152606401610663565b6010546001600160601b031661084057600080610875565b6010546001600160a01b03600160601b820416906127109061086b906001600160601b0316866126ca565b61087591906126e9565b915091509250929050565b60008281526020819052604090206001015461089c81336115a4565b6107998383611608565b60006108b183610ba4565b82106109135760405162461bcd60e51b815260206004820152602b60248201527f455243373231456e756d657261626c653a206f776e657220696e646578206f7560448201526a74206f6620626f756e647360a81b6064820152608401610663565b506001600160a01b03919091166000908152600860209081526040808320938352929052205490565b6001600160a01b03811633146109ac5760405162461bcd60e51b815260206004820152602f60248201527f416363657373436f6e74726f6c3a2063616e206f6e6c792072656e6f756e636560448201526e103937b632b9903337b91039b2b63360891b6064820152608401610663565b6109b6828261162a565b5050565b61079983838360405180602001604052806000815250610ee9565b6109de336107a3565b610a435760405162461bcd60e51b815260206004820152603060248201527f4552433732314275726e61626c653a2063616c6c6572206973206e6f74206f7760448201526f1b995c881b9bdc88185c1c1c9bdd995960821b6064820152608401610663565b610a4c8161164c565b50565b6000610a5a600a5490565b8210610abd5760405162461bcd60e51b815260206004820152602c60248201527f455243373231456e756d657261626c653a20676c6f62616c20696e646578206f60448201526b7574206f6620626f756e647360a01b6064820152608401610663565b600a8281548110610ad057610ad061270b565b90600052602060002001549050919050565b6000818152600460205260408120546001600160a01b0316806105635760405162461bcd60e51b815260206004820152602960248201527f4552433732313a206f776e657220717565727920666f72206e6f6e657869737460448201526832b73a103a37b5b2b760b91b6064820152608401610663565b7f2f3a5455f35aeca177ac653592f277fbe2fbafef01081a2030451bb2fb41c91d610b8481336115a4565b610b9682610b91600f5490565b6116f3565b6109b6600f80546001019055565b60006001600160a01b038216610c0f5760405162461bcd60e51b815260206004820152602a60248201527f4552433732313a2062616c616e636520717565727920666f7220746865207a65604482015269726f206164647265737360b01b6064820152608401610663565b506001600160a01b031660009081526005602052604090205490565b600c546001600160a01b03163314610c855760405162461bcd60e51b815260206004820181905260248201527f4f776e61626c653a2063616c6c6572206973206e6f7420746865206f776e65726044820152606401610663565b610c8f6000611832565b565b60007f2f3a5455f35aeca177ac653592f277fbe2fbafef01081a2030451bb2fb41c91d610cbe81336115a4565b600f5491505b5090565b6000828152600160205260408120610ce09083611884565b9392505050565b6000918252602082815260408084206001600160a01b0393909316845291905290205460ff1690565b60606003805461057890612628565b33610d2983610ae2565b6001600160a01b031614610d705760405162461bcd60e51b815260206004820152600e60248201526d2222a81d103737ba1037bbb732b960911b6044820152606401610663565b33600d546040516331a9108f60e11b8152600481018490526001600160a01b039283169290911690636352211e90602401602060405180830381865afa158015610dbe573d6000803e3d6000fd5b505050506040513d601f19601f82011682018060405250810190610de29190612721565b6001600160a01b031614610e385760405162461bcd60e51b815260206004820152601860248201527f4445503a206e6f74206f776e6572206f662074617267657400000000000000006044820152606401610663565b6040805182815260208101849052338183015290517ffe3578d0ea035eb32d96fda2a02d63e019bb3f0fe46ab87cc7472548bf6140669181900360600190a1600d546040516314298f8360e11b8152600481018390526001600160a01b03909116906328531f0690602401600060405180830381600087803b158015610ebd57600080fd5b505af1158015610ed1573d6000803e3d6000fd5b505050506109b68261164c565b6109b6338383611890565b610ef3338361130f565b610f0f5760405162461bcd60e51b815260040161066390612663565b610f1b8484848461195f565b50505050565b6000610f2d81336115a4565b610f1b600e848461218c565b6060610f4482611284565b610f895760405162461bcd60e51b81526020600482015260166024820152752222a81d103737b732bc34b9ba32b73a103a37b5b2b760511b6044820152606401610663565b610563611992565b6000818152600160205260408120610563906119a1565b6060610fb382611284565b610fff5760405162461bcd60e51b815260206004820152601c60248201527f4445503a20526f792e206e6f6e2d6578697374696e6720746f6b656e000000006044820152606401610663565b604080516001808252818301909252600091816020015b60408051808201909152600080825260208201528152602001906001900390816110165790505090506010600c9054906101000a90046001600160a01b0316816000815181106110685761106861270b565b60209081029190910101516001600160a01b03909116905260105481516001600160601b039091169082906000906110a2576110a261270b565b6020908102919091018101516001600160601b0390921691015292915050565b6000828152602081905260409020600101546110de81336115a4565b610799838361162a565b60006110f481336115a4565b61079983836119ab565b600c546001600160a01b031633146111585760405162461bcd60e51b815260206004820181905260248201527f4f776e61626c653a2063616c6c6572206973206e6f7420746865206f776e65726044820152606401610663565b6001600160a01b0381166111bd5760405162461bcd60e51b815260206004820152602660248201527f4f776e61626c653a206e6577206f776e657220697320746865207a65726f206160448201526564647265737360d01b6064820152608401610663565b610a4c81611832565b6111d08282610ce7565b6109b6576000828152602081815260408083206001600160a01b03851684529091529020805460ff191660011790556112063390565b6001600160a01b0316816001600160a01b0316837f2f8788117e7eff1d82e926ec794901d17c78024a50270940304540a733656f0d60405160405180910390a45050565b6000610ce0836001600160a01b038416611a1f565b60006001600160e01b0319821663780e9d6360e01b1480610563575061056382611a6e565b6000908152600460205260409020546001600160a01b0316151590565b600081815260066020526040902080546001600160a01b0319166001600160a01b03841690811790915581906112d682610ae2565b6001600160a01b03167f8c5be1e5ebec7d5bd14f71427d1e84f3dd0314c0f7b2291e5b200ac8c7c3b92560405160405180910390a45050565b600061131a82611284565b61137b5760405162461bcd60e51b815260206004820152602c60248201527f4552433732313a206f70657261746f7220717565727920666f72206e6f6e657860448201526b34b9ba32b73a103a37b5b2b760a11b6064820152608401610663565b600061138683610ae2565b9050806001600160a01b0316846001600160a01b031614806113c15750836001600160a01b03166113b6846105fb565b6001600160a01b0316145b806113f157506001600160a01b0380821660009081526007602090815260408083209388168352929052205460ff165b949350505050565b826001600160a01b031661140c82610ae2565b6001600160a01b0316146114745760405162461bcd60e51b815260206004820152602960248201527f4552433732313a207472616e73666572206f6620746f6b656e2074686174206960448201526839903737ba1037bbb760b91b6064820152608401610663565b6001600160a01b0382166114d65760405162461bcd60e51b8152602060048201526024808201527f4552433732313a207472616e7366657220746f20746865207a65726f206164646044820152637265737360e01b6064820152608401610663565b6114e1838383611aae565b6114ec6000826112a1565b6001600160a01b038316600090815260056020526040812080546001929061151590849061273e565b90915550506001600160a01b0382166000908152600560205260408120805460019290611543908490612755565b909155505060008181526004602052604080822080546001600160a01b0319166001600160a01b0386811691821790925591518493918716917fddf252ad1be2c89b69c2b068fc378daa952ba7f163c4a11628f55a4df523b3ef91a4505050565b6115ae8282610ce7565b6109b6576115c6816001600160a01b03166014611ab9565b6115d1836020611ab9565b6040516020016115e292919061276d565b60408051601f198184030181529082905262461bcd60e51b8252610663916004016122a7565b61161282826111c6565b6000828152600160205260409020610799908261124a565b6116348282611c55565b60008281526001602052604090206107999082611cba565b600061165782610ae2565b905061166581600084611aae565b6116706000836112a1565b6001600160a01b038116600090815260056020526040812080546001929061169990849061273e565b909155505060008281526004602052604080822080546001600160a01b0319169055518391906001600160a01b038416907fddf252ad1be2c89b69c2b068fc378daa952ba7f163c4a11628f55a4df523b3ef908390a45050565b6001600160a01b0382166117495760405162461bcd60e51b815260206004820181905260248201527f4552433732313a206d696e7420746f20746865207a65726f20616464726573736044820152606401610663565b61175281611284565b1561179f5760405162461bcd60e51b815260206004820152601c60248201527f4552433732313a20746f6b656e20616c7265616479206d696e746564000000006044820152606401610663565b6117ab60008383611aae565b6001600160a01b03821660009081526005602052604081208054600192906117d4908490612755565b909155505060008181526004602052604080822080546001600160a01b0319166001600160a01b03861690811790915590518392907fddf252ad1be2c89b69c2b068fc378daa952ba7f163c4a11628f55a4df523b3ef908290a45050565b600c80546001600160a01b038381166001600160a01b0319831681179093556040519116919082907f8be0079c531659141344cd1fd0a4f28419497f9722a3daafe3b4186f6b6457e090600090a35050565b6000610ce08383611ccf565b816001600160a01b0316836001600160a01b031614156118f25760405162461bcd60e51b815260206004820152601960248201527f4552433732313a20617070726f766520746f2063616c6c6572000000000000006044820152606401610663565b6001600160a01b03838116600081815260076020908152604080832094871680845294825291829020805460ff191686151590811790915591519182527f17307eab39ab6107e8899845ad3d59bd9653f200f220920489ca2b5937696c31910160405180910390a3505050565b61196a8484846113f9565b61197684848484611cf9565b610f1b5760405162461bcd60e51b8152600401610663906127e2565b6060600e805461057890612628565b6000610563825490565b6103e8816001600160601b031611156119f05760405162461bcd60e51b81526020600482015260076024820152662222a81d102aa960c91b6044820152606401610663565b6001600160601b03166001600160a01b03909116600160601b026bffffffffffffffffffffffff191617601055565b6000818152600183016020526040812054611a6657508154600181810184556000848152602080822090930184905584548482528286019093526040902091909155610563565b506000610563565b60006001600160e01b031982166380ac58cd60e01b1480611a9f57506001600160e01b03198216635b5e139f60e01b145b80610563575061056382611df7565b610799838383611e1c565b60606000611ac88360026126ca565b611ad3906002612755565b67ffffffffffffffff811115611aeb57611aeb6123f7565b6040519080825280601f01601f191660200182016040528015611b15576020820181803683370190505b509050600360fc1b81600081518110611b3057611b3061270b565b60200101906001600160f81b031916908160001a905350600f60fb1b81600181518110611b5f57611b5f61270b565b60200101906001600160f81b031916908160001a9053506000611b838460026126ca565b611b8e906001612755565b90505b6001811115611c06576f181899199a1a9b1b9c1cb0b131b232b360811b85600f1660108110611bc257611bc261270b565b1a60f81b828281518110611bd857611bd861270b565b60200101906001600160f81b031916908160001a90535060049490941c93611bff81612834565b9050611b91565b508315610ce05760405162461bcd60e51b815260206004820181905260248201527f537472696e67733a20686578206c656e67746820696e73756666696369656e746044820152606401610663565b611c5f8282610ce7565b156109b6576000828152602081815260408083206001600160a01b0385168085529252808320805460ff1916905551339285917ff6391f5c32d9c69d2a47ea670b442974b53935d1edc7fd64eb21e047a839171b9190a45050565b6000610ce0836001600160a01b038416611ed4565b6000826000018281548110611ce657611ce661270b565b9060005260206000200154905092915050565b60006001600160a01b0384163b15611dec57604051630a85bd0160e11b81526001600160a01b0385169063150b7a0290611d3d90339089908890889060040161284b565b6020604051808303816000875af1925050508015611d78575060408051601f3d908101601f19168201909252611d7591810190612888565b60015b611dd2573d808015611da6576040519150601f19603f3d011682016040523d82523d6000602084013e611dab565b606091505b508051611dca5760405162461bcd60e51b8152600401610663906127e2565b805181602001fd5b6001600160e01b031916630a85bd0160e11b1490506113f1565b506001949350505050565b60006001600160e01b03198216635a05180f60e01b1480610563575061056382611fc7565b6001600160a01b038316611e7757611e7281600a80546000838152600b60205260408120829055600182018355919091527fc65a7bb8d6351c1cf70c95a316cc6a92839c986682d98bc35f958f4883f9d2a80155565b611e9a565b816001600160a01b0316836001600160a01b031614611e9a57611e9a8382611ffc565b6001600160a01b038216611eb15761079981612099565b826001600160a01b0316826001600160a01b031614610799576107998282612148565b60008181526001830160205260408120548015611fbd576000611ef860018361273e565b8554909150600090611f0c9060019061273e565b9050818114611f71576000866000018281548110611f2c57611f2c61270b565b9060005260206000200154905080876000018481548110611f4f57611f4f61270b565b6000918252602080832090910192909255918252600188019052604090208390555b8554869080611f8257611f826128a5565b600190038181906000526020600020016000905590558560010160008681526020019081526020016000206000905560019350505050610563565b6000915050610563565b60006001600160e01b03198216637965db0b60e01b148061056357506301ffc9a760e01b6001600160e01b0319831614610563565b6000600161200984610ba4565b612013919061273e565b600083815260096020526040902054909150808214612066576001600160a01b03841660009081526008602090815260408083208584528252808320548484528184208190558352600990915290208190555b5060009182526009602090815260408084208490556001600160a01b039094168352600881528383209183525290812055565b600a546000906120ab9060019061273e565b6000838152600b6020526040812054600a80549394509092849081106120d3576120d361270b565b9060005260206000200154905080600a83815481106120f4576120f461270b565b6000918252602080832090910192909255828152600b9091526040808220849055858252812055600a80548061212c5761212c6128a5565b6001900381819060005260206000200160009055905550505050565b600061215383610ba4565b6001600160a01b039093166000908152600860209081526040808320868452825280832085905593825260099052919091209190915550565b82805461219890612628565b90600052602060002090601f0160209004810192826121ba5760008555612200565b82601f106121d35782800160ff19823516178555612200565b82800160010185558215612200579182015b828111156122005782358255916020019190600101906121e5565b50610cc49291505b80821115610cc45760008155600101612208565b6001600160e01b031981168114610a4c57600080fd5b60006020828403121561224457600080fd5b8135610ce08161221c565b60005b8381101561226a578181015183820152602001612252565b83811115610f1b5750506000910152565b6000815180845261229381602086016020860161224f565b601f01601f19169290920160200192915050565b602081526000610ce0602083018461227b565b6000602082840312156122cc57600080fd5b5035919050565b6001600160a01b0381168114610a4c57600080fd5b600080604083850312156122fb57600080fd5b8235612306816122d3565b946020939093013593505050565b60008060006060848603121561232957600080fd5b8335612334816122d3565b92506020840135612344816122d3565b929592945050506040919091013590565b6000806040838503121561236857600080fd5b50508035926020909101359150565b6000806040838503121561238a57600080fd5b82359150602083013561239c816122d3565b809150509250929050565b6000602082840312156123b957600080fd5b8135610ce0816122d3565b600080604083850312156123d757600080fd5b82356123e2816122d3565b91506020830135801515811461239c57600080fd5b634e487b7160e01b600052604160045260246000fd5b6000806000806080858703121561242357600080fd5b843561242e816122d3565b9350602085013561243e816122d3565b925060408501359150606085013567ffffffffffffffff8082111561246257600080fd5b818701915087601f83011261247657600080fd5b813581811115612488576124886123f7565b604051601f8201601f19908116603f011681019083821181831017156124b0576124b06123f7565b816040528281528a60208487010111156124c957600080fd5b82602086016020830137600060208483010152809550505050505092959194509250565b6000806020838503121561250057600080fd5b823567ffffffffffffffff8082111561251857600080fd5b818501915085601f83011261252c57600080fd5b81358181111561253b57600080fd5b86602082850101111561254d57600080fd5b60209290920196919550909350505050565b602080825282518282018190526000919060409081850190868401855b828110156125b357815180516001600160a01b031685528601516001600160601b031686850152928401929085019060010161257c565b5091979650505050505050565b600080604083850312156125d357600080fd5b82356125de816122d3565b915060208301356001600160601b038116811461239c57600080fd5b6000806040838503121561260d57600080fd5b8235612618816122d3565b9150602083013561239c816122d3565b600181811c9082168061263c57607f821691505b6020821081141561265d57634e487b7160e01b600052602260045260246000fd5b50919050565b60208082526031908201527f4552433732313a207472616e736665722063616c6c6572206973206e6f74206f6040820152701ddb995c881b9bdc88185c1c1c9bdd9959607a1b606082015260800190565b634e487b7160e01b600052601160045260246000fd5b60008160001904831182151516156126e4576126e46126b4565b500290565b60008261270657634e487b7160e01b600052601260045260246000fd5b500490565b634e487b7160e01b600052603260045260246000fd5b60006020828403121561273357600080fd5b8151610ce0816122d3565b600082821015612750576127506126b4565b500390565b60008219821115612768576127686126b4565b500190565b7f416363657373436f6e74726f6c3a206163636f756e74200000000000000000008152600083516127a581601785016020880161224f565b7001034b99036b4b9b9b4b733903937b6329607d1b60179184019182015283516127d681602884016020880161224f565b01602801949350505050565b60208082526032908201527f4552433732313a207472616e7366657220746f206e6f6e20455243373231526560408201527131b2b4bb32b91034b6b83632b6b2b73a32b960711b606082015260800190565b600081612843576128436126b4565b506000190190565b6001600160a01b038581168252841660208201526040810183905260806060820181905260009061287e9083018461227b565b9695505050505050565b60006020828403121561289a57600080fd5b8151610ce08161221c565b634e487b7160e01b600052603160045260246000fdfea2646970667358221220c1b714656422711d96ec5d81378a8a97580b4226a8b4ca7b095dd914733ce60564736f6c634300080b0033",
  "linkReferences": {},
  "deployedLinkReferences": {}
}