{
  "_format": "hh-sol-artifact-1",
  "contractName": "Pharmacy",
  "sourceName": "contracts/Pharmacy.sol",
  "abi": [
    {
      "inputs": [
        {
          "internalType": "address",
          "name": "_NFT",
          "type": "address"
        },
        {
          "internalType": "address",
          "name": "_pill",
          "type": "address"
        },
        {
          "internalType": "uint256",
          "name": "_price",
          "type": "uint256"
        },
        {
          "internalType": "uint256",
          "name": "_supplyCap",
          "type": "uint256"
        },
        {
          "internalType": "address payable",
          "name": "_liquidityCollector",
          "type": "address"
        }
      ],
      "stateMutability": "nonpayable",
      "type": "constructor"
    },
    {
      "anonymous": false,
      "inputs": [
        {
          "indexed": true,
          "internalType": "address",
          "name": "previousOwner",
          "type": "address"
        },
        {
          "indexed": true,
          "internalType": "address",
          "name": "newOwner",
          "type": "address"
        }
      ],
      "name": "OwnershipTransferred",
      "type": "event"
    },
    {
      "anonymous": false,
      "inputs": [
        {
          "indexed": false,
          "internalType": "address",
          "name": "account",
          "type": "address"
        }
      ],
      "name": "Paused",
      "type": "event"
    },
    {
      "anonymous": false,
      "inputs": [
        {
          "indexed": false,
          "internalType": "address",
          "name": "account",
          "type": "address"
        }
      ],
      "name": "Unpaused",
      "type": "event"
    },
    {
      "inputs": [],
      "name": "claimDeadline",
      "outputs": [
        {
          "internalType": "uint256",
          "name": "",
          "type": "uint256"
        }
      ],
      "stateMutability": "view",
      "type": "function"
    },
    {
      "inputs": [],
      "name": "claimFreePills",
      "outputs": [],
      "stateMutability": "nonpayable",
      "type": "function"
    },
    {
      "inputs": [
        {
          "internalType": "address",
          "name": "",
          "type": "address"
        }
      ],
      "name": "claimRegistry",
      "outputs": [
        {
          "internalType": "bool",
          "name": "",
          "type": "bool"
        }
      ],
      "stateMutability": "view",
      "type": "function"
    },
    {
      "inputs": [],
      "name": "claimReserve",
      "outputs": [
        {
          "internalType": "uint256",
          "name": "",
          "type": "uint256"
        }
      ],
      "stateMutability": "view",
      "type": "function"
    },
    {
      "inputs": [],
      "name": "getCurrentDrug",
      "outputs": [
        {
          "internalType": "address",
          "name": "",
          "type": "address"
        }
      ],
      "stateMutability": "view",
      "type": "function"
    },
    {
      "inputs": [],
      "name": "liquidityCollector",
      "outputs": [
        {
          "internalType": "address payable",
          "name": "",
          "type": "address"
        }
      ],
      "stateMutability": "view",
      "type": "function"
    },
    {
      "inputs": [],
      "name": "owner",
      "outputs": [
        {
          "internalType": "address",
          "name": "",
          "type": "address"
        }
      ],
      "stateMutability": "view",
      "type": "function"
    },
    {
      "inputs": [],
      "name": "paused",
      "outputs": [
        {
          "internalType": "bool",
          "name": "",
          "type": "bool"
        }
      ],
      "stateMutability": "view",
      "type": "function"
    },
    {
      "inputs": [],
      "name": "price",
      "outputs": [
        {
          "internalType": "uint256",
          "name": "",
          "type": "uint256"
        }
      ],
      "stateMutability": "view",
      "type": "function"
    },
    {
      "inputs": [
        {
          "internalType": "uint256",
          "name": "quantity",
          "type": "uint256"
        }
      ],
      "name": "purchasePills",
      "outputs": [],
      "stateMutability": "payable",
      "type": "function"
    },
    {
      "inputs": [],
      "name": "renounceOwnership",
      "outputs": [],
      "stateMutability": "nonpayable",
      "type": "function"
    },
    {
      "inputs": [
        {
          "internalType": "uint256",
          "name": "_deadline",
          "type": "uint256"
        }
      ],
      "name": "setClaimDeadline",
      "outputs": [],
      "stateMutability": "nonpayable",
      "type": "function"
    },
    {
      "inputs": [],
      "name": "supplyCap",
      "outputs": [
        {
          "internalType": "uint256",
          "name": "",
          "type": "uint256"
        }
      ],
      "stateMutability": "view",
      "type": "function"
    },
    {
      "inputs": [],
      "name": "togglePause",
      "outputs": [],
      "stateMutability": "nonpayable",
      "type": "function"
    },
    {
      "inputs": [
        {
          "internalType": "address",
          "name": "newOwner",
          "type": "address"
        }
      ],
      "name": "transferOwnership",
      "outputs": [],
      "stateMutability": "nonpayable",
      "type": "function"
    },
    {
      "inputs": [
        {
          "internalType": "address payable",
          "name": "newCollector",
          "type": "address"
        }
      ],
      "name": "updateLiquidityCollector",
      "outputs": [],
      "stateMutability": "nonpayable",
      "type": "function"
    }
  ],
  "bytecode": "0x60c060405234801561001057600080fd5b506040516110bd3803806110bd83398101604081905261002f916100fb565b6000805460ff191690556001805561004633610091565b600480546001600160a01b039687166001600160a01b031991821617909155600380549587169582169590951790945560809290925260a0526007805491909316911617905561015d565b600280546001600160a01b038381166001600160a01b0319831681179093556040519116919082907f8be0079c531659141344cd1fd0a4f28419497f9722a3daafe3b4186f6b6457e090600090a35050565b6001600160a01b03811681146100f857600080fd5b50565b600080600080600060a0868803121561011357600080fd5b855161011e816100e3565b602087015190955061012f816100e3565b809450506040860151925060608601519150608086015161014f816100e3565b809150509295509295909350565b60805160a051610f1f61019e6000396000818161020a01528181610578015281816106680152610a3601526000818161027c01526104c10152610f1f6000f3fe6080604052600436106100f35760003560e01c806392c700bc1161008a578063d47564aa11610059578063d47564aa146102b3578063d67f99f6146102c6578063f194cdb5146102e6578063f2fde38b146102fb57600080fd5b806392c700bc1461022c5780639b96acdc1461024a578063a035b1fe1461026a578063c4ae31681461029e57600080fd5b80635c975abb116100c65780635c975abb14610199578063715018a6146101b15780638da5cb5b146101c65780638f770ad0146101f857600080fd5b806325aa22d8146100f85780632e1fbb1c1461011a5780633ba86c441461015f5780633fe5f05414610183575b600080fd5b34801561010457600080fd5b50610118610113366004610da7565b61031b565b005b34801561012657600080fd5b5061014a610135366004610dd5565b60086020526000908152604090205460ff1681565b60405190151581526020015b60405180910390f35b34801561016b57600080fd5b5061017560065481565b604051908152602001610156565b34801561018f57600080fd5b5061017560055481565b3480156101a557600080fd5b5060005460ff1661014a565b3480156101bd57600080fd5b50610118610353565b3480156101d257600080fd5b506002546001600160a01b03165b6040516001600160a01b039091168152602001610156565b34801561020457600080fd5b506101757f000000000000000000000000000000000000000000000000000000000000000081565b34801561023857600080fd5b506003546001600160a01b03166101e0565b34801561025657600080fd5b506007546101e0906001600160a01b031681565b34801561027657600080fd5b506101757f000000000000000000000000000000000000000000000000000000000000000081565b3480156102aa57600080fd5b50610118610389565b6101186102c1366004610da7565b61043e565b3480156102d257600080fd5b506101186102e1366004610dd5565b610857565b3480156102f257600080fd5b506101186108a3565b34801561030757600080fd5b50610118610316366004610dd5565b610bbc565b6002546001600160a01b0316331461034e5760405162461bcd60e51b815260040161034590610df2565b60405180910390fd5b600655565b6002546001600160a01b0316331461037d5760405162461bcd60e51b815260040161034590610df2565b6103876000610c57565b565b6002546001600160a01b031633146103b35760405162461bcd60e51b815260040161034590610df2565b60005460ff1615610436576103c6610ca9565b60048054604080516383b657e960e01b815290516001600160a01b03909216926383b657e99282820192602092908290030181865afa15801561040d573d6000803e3d6000fd5b505050506040513d601f19601f820116820180604052508101906104319190610e27565b600555565b610387610d3c565b60005460ff16156104615760405162461bcd60e51b815260040161034590610e40565b600260015414156104b45760405162461bcd60e51b815260206004820152601f60248201527f5265656e7472616e637947756172643a207265656e7472616e742063616c6c006044820152606401610345565b600260015560006104e5827f0000000000000000000000000000000000000000000000000000000000000000610e80565b9050803410156105285760405162461bcd60e51b815260206004820152600e60248201526d503a2045544820746f6f206c6f7760901b6044820152606401610345565b60148211156105655760405162461bcd60e51b81526020600482015260096024820152680a074409a82b0bea8b60bb1b6044820152606401610345565b6006544210156106665760055461059c907f0000000000000000000000000000000000000000000000000000000000000000610e9f565b60035460408051632140f7df60e21b8152905185926001600160a01b031691638503df7c9160048083019260209291908290030181865afa1580156105e5573d6000803e3d6000fd5b505050506040513d601f19601f820116820180604052508101906106099190610e27565b6106139190610eb6565b11156106615760405162461bcd60e51b815260206004820152601960248201527f503a20436c61696d2052657365727665206e6f74206f70656e000000000000006044820152606401610345565b610746565b7f000000000000000000000000000000000000000000000000000000000000000082600360009054906101000a90046001600160a01b03166001600160a01b0316638503df7c6040518163ffffffff1660e01b8152600401602060405180830381865afa1580156106db573d6000803e3d6000fd5b505050506040513d601f19601f820116820180604052508101906106ff9190610e27565b6107099190610eb6565b11156107465760405162461bcd60e51b815260206004820152600c60248201526b503a20536f6c64206f75742160a01b6044820152606401610345565b60006107523483610d94565b9050801561078957604051339082156108fc029083906000818181858888f19350505050158015610787573d6000803e3d6000fd5b505b60005b83811015610812576003546001600160a01b0316636a627842336040516001600160e01b031960e084901b1681526001600160a01b039091166004820152602401600060405180830381600087803b1580156107e757600080fd5b505af11580156107fb573d6000803e3d6000fd5b50505050808061080a90610ece565b91505061078c565b506007546040516001600160a01b039091169083156108fc029084906000818181858888f1935050505015801561084d573d6000803e3d6000fd5b5050600180555050565b6002546001600160a01b031633146108815760405162461bcd60e51b815260040161034590610df2565b600780546001600160a01b0319166001600160a01b0392909216919091179055565b60005460ff16156108c65760405162461bcd60e51b815260040161034590610e40565b600260015414156109195760405162461bcd60e51b815260206004820152601f60248201527f5265656e7472616e637947756172643a207265656e7472616e742063616c6c006044820152606401610345565b60026001553360009081526008602052604090205460ff16156109735760405162461bcd60e51b8152602060048201526012602482015271140e88105b1c9958591e4818db185a5b595960721b6044820152606401610345565b6004546000906001600160a01b0316632d0b7890336040516001600160e01b031960e084901b1681526001600160a01b039091166004820152602401602060405180830381865afa1580156109cc573d6000803e3d6000fd5b505050506040513d601f19601f820116820180604052508101906109f09190610e27565b905060008111610a345760405162461bcd60e51b815260206004820152600f60248201526e503a204e6f7420656c696769626c6560881b6044820152606401610345565b7f000000000000000000000000000000000000000000000000000000000000000081600360009054906101000a90046001600160a01b03166001600160a01b0316638503df7c6040518163ffffffff1660e01b8152600401602060405180830381865afa158015610aa9573d6000803e3d6000fd5b505050506040513d601f19601f82011682018060405250810190610acd9190610e27565b610ad79190610eb6565b1115610b135760405162461bcd60e51b815260206004820152600b60248201526a140e8814dbdb190813dd5d60aa1b6044820152606401610345565b336000908152600860205260408120805460ff191660011790555b81811015610bb4576003546001600160a01b0316636a627842336040516001600160e01b031960e084901b1681526001600160a01b039091166004820152602401600060405180830381600087803b158015610b8957600080fd5b505af1158015610b9d573d6000803e3d6000fd5b505050508080610bac90610ece565b915050610b2e565b505060018055565b6002546001600160a01b03163314610be65760405162461bcd60e51b815260040161034590610df2565b6001600160a01b038116610c4b5760405162461bcd60e51b815260206004820152602660248201527f4f776e61626c653a206e6577206f776e657220697320746865207a65726f206160448201526564647265737360d01b6064820152608401610345565b610c5481610c57565b50565b600280546001600160a01b038381166001600160a01b0319831681179093556040519116919082907f8be0079c531659141344cd1fd0a4f28419497f9722a3daafe3b4186f6b6457e090600090a35050565b60005460ff16610cf25760405162461bcd60e51b815260206004820152601460248201527314185d5cd8589b194e881b9bdd081c185d5cd95960621b6044820152606401610345565b6000805460ff191690557f5db9ee0a495bf2e6ff9c91a7834c1ba4fdd244a5e8aa4e537bd38aeae4b073aa335b6040516001600160a01b03909116815260200160405180910390a1565b60005460ff1615610d5f5760405162461bcd60e51b815260040161034590610e40565b6000805460ff191660011790557f62e78cea01bee320cd4e420270b5ea74000d11b0c9f74754ebdbfc544b05a258610d1f3390565b6000610da08284610e9f565b9392505050565b600060208284031215610db957600080fd5b5035919050565b6001600160a01b0381168114610c5457600080fd5b600060208284031215610de757600080fd5b8135610da081610dc0565b6020808252818101527f4f776e61626c653a2063616c6c6572206973206e6f7420746865206f776e6572604082015260600190565b600060208284031215610e3957600080fd5b5051919050565b60208082526010908201526f14185d5cd8589b194e881c185d5cd95960821b604082015260600190565b634e487b7160e01b600052601160045260246000fd5b6000816000190483118215151615610e9a57610e9a610e6a565b500290565b600082821015610eb157610eb1610e6a565b500390565b60008219821115610ec957610ec9610e6a565b500190565b6000600019821415610ee257610ee2610e6a565b506001019056fea26469706673582212209a127c4cf29d2ae198c8a5515988795eca9361cdbc3e3af66d4a19612d0f6a2364736f6c634300080b0033",
  "linkReferences": {},
  "deployedLinkReferences": {}
}