{
  "_format": "hh-sol-artifact-1",
  "contractName": "PreSale",
  "sourceName": "contracts/PreSale.sol",
  "abi": [
    {
      "inputs": [
        {
          "internalType": "contract INFT",
          "name": "_collection",
          "type": "address"
        },
        {
          "internalType": "contract IEMC",
          "name": "_Companycard",
          "type": "address"
        },
        {
          "internalType": "uint256",
          "name": "_preSaleSize",
          "type": "uint256"
        },
        {
          "internalType": "address payable",
          "name": "_liquidityCollector",
          "type": "address"
        },
        {
          "internalType": "uint256",
          "name": "_releaseDate",
          "type": "uint256"
        },
        {
          "internalType": "uint256",
          "name": "_price",
          "type": "uint256"
        }
      ],
      "stateMutability": "nonpayable",
      "type": "constructor"
    },
    {
      "anonymous": false,
      "inputs": [
        {
          "indexed": true,
          "internalType": "address",
          "name": "previousOwner",
          "type": "address"
        },
        {
          "indexed": true,
          "internalType": "address",
          "name": "newOwner",
          "type": "address"
        }
      ],
      "name": "OwnershipTransferred",
      "type": "event"
    },
    {
      "anonymous": false,
      "inputs": [
        {
          "indexed": false,
          "internalType": "address",
          "name": "account",
          "type": "address"
        }
      ],
      "name": "Paused",
      "type": "event"
    },
    {
      "anonymous": false,
      "inputs": [
        {
          "indexed": false,
          "internalType": "address",
          "name": "account",
          "type": "address"
        }
      ],
      "name": "Unpaused",
      "type": "event"
    },
    {
      "inputs": [],
      "name": "collection",
      "outputs": [
        {
          "internalType": "contract INFT",
          "name": "",
          "type": "address"
        }
      ],
      "stateMutability": "view",
      "type": "function"
    },
    {
      "inputs": [],
      "name": "Companycard",
      "outputs": [
        {
          "internalType": "contract IEMC",
          "name": "",
          "type": "address"
        }
      ],
      "stateMutability": "view",
      "type": "function"
    },
    {
      "inputs": [
        {
          "internalType": "address",
          "name": "to",
          "type": "address"
        },
        {
          "internalType": "uint256",
          "name": "quantity",
          "type": "uint256"
        }
      ],
      "name": "issueContingent",
      "outputs": [],
      "stateMutability": "nonpayable",
      "type": "function"
    },
    {
      "inputs": [],
      "name": "itemPrice",
      "outputs": [
        {
          "internalType": "uint256",
          "name": "",
          "type": "uint256"
        }
      ],
      "stateMutability": "view",
      "type": "function"
    },
    {
      "inputs": [],
      "name": "liquidityCollector",
      "outputs": [
        {
          "internalType": "address payable",
          "name": "",
          "type": "address"
        }
      ],
      "stateMutability": "view",
      "type": "function"
    },
    {
      "inputs": [
        {
          "internalType": "uint256",
          "name": "quantity",
          "type": "uint256"
        }
      ],
      "name": "mintNewNFTs",
      "outputs": [],
      "stateMutability": "payable",
      "type": "function"
    },
    {
      "inputs": [],
      "name": "owner",
      "outputs": [
        {
          "internalType": "address",
          "name": "",
          "type": "address"
        }
      ],
      "stateMutability": "view",
      "type": "function"
    },
    {
      "inputs": [],
      "name": "paused",
      "outputs": [
        {
          "internalType": "bool",
          "name": "",
          "type": "bool"
        }
      ],
      "stateMutability": "view",
      "type": "function"
    },
    {
      "inputs": [],
      "name": "preSaleSize",
      "outputs": [
        {
          "internalType": "uint256",
          "name": "",
          "type": "uint256"
        }
      ],
      "stateMutability": "view",
      "type": "function"
    },
    {
      "inputs": [],
      "name": "releaseDate",
      "outputs": [
        {
          "internalType": "uint256",
          "name": "",
          "type": "uint256"
        }
      ],
      "stateMutability": "view",
      "type": "function"
    },
    {
      "inputs": [],
      "name": "renounceOwnership",
      "outputs": [],
      "stateMutability": "nonpayable",
      "type": "function"
    },
    {
      "inputs": [],
      "name": "togglePause",
      "outputs": [],
      "stateMutability": "nonpayable",
      "type": "function"
    },
    {
      "inputs": [
        {
          "internalType": "address",
          "name": "newOwner",
          "type": "address"
        }
      ],
      "name": "transferOwnership",
      "outputs": [],
      "stateMutability": "nonpayable",
      "type": "function"
    }
  ],
  "bytecode": "0x60c060405234801561001057600080fd5b50604051610c8d380380610c8d83398101604081905261002f916100ee565b6000805460ff191690556001805561004633610084565b6001600160a01b0395861660805293851660a052600493909355600680546001600160a01b0319169190941617909255600391909155600555610157565b600280546001600160a01b038381166001600160a01b0319831681179093556040519116919082907f8be0079c531659141344cd1fd0a4f28419497f9722a3daafe3b4186f6b6457e090600090a35050565b6001600160a01b03811681146100eb57600080fd5b50565b60008060008060008060c0878903121561010757600080fd5b8651610112816100d6565b6020880151909650610123816100d6565b60408801516060890151919650945061013b816100d6565b809350506080870151915060a087015190509295509295509295565b60805160a051610af56101986000396000818161015b01526106300152600081816101a7015281816102d8015281816104c801526105b90152610af56000f3fe6080604052600436106100c15760003560e01c80638da5cb5b1161007f578063b9e3e2db11610059578063b9e3e2db1461021a578063c4ae316814610230578063dac6db1c14610245578063f2fde38b1461025b57600080fd5b80638da5cb5b146101c95780638ff28a17146101e75780639b96acdc146101fa57600080fd5b806238bdc0146100c657806358ba0bec146100ef5780635c975abb14610111578063715018a61461013457806376495860146101495780637de1e53614610195575b600080fd5b3480156100d257600080fd5b506100dc60035481565b6040519081526020015b60405180910390f35b3480156100fb57600080fd5b5061010f61010a36600461098d565b61027b565b005b34801561011d57600080fd5b5060005460ff1660405190151581526020016100e6565b34801561014057600080fd5b5061010f61034c565b34801561015557600080fd5b5061017d7f000000000000000000000000000000000000000000000000000000000000000081565b6040516001600160a01b0390911681526020016100e6565b3480156101a157600080fd5b5061017d7f000000000000000000000000000000000000000000000000000000000000000081565b3480156101d557600080fd5b506002546001600160a01b031661017d565b61010f6101f53660046109b7565b610382565b34801561020657600080fd5b5060065461017d906001600160a01b031681565b34801561022657600080fd5b506100dc60055481565b34801561023c57600080fd5b5061010f610731565b34801561025157600080fd5b506100dc60045481565b34801561026757600080fd5b5061010f6102763660046109d0565b610776565b6002546001600160a01b031633146102ae5760405162461bcd60e51b81526004016102a5906109f2565b60405180910390fd5b60005b81811015610347576040516335313c2160e11b81526001600160a01b0384811660048301527f00000000000000000000000000000000000000000000000000000000000000001690636a62784290602401600060405180830381600087803b15801561031c57600080fd5b505af1158015610330573d6000803e3d6000fd5b50505050808061033f90610a3d565b9150506102b1565b505050565b6002546001600160a01b031633146103765760405162461bcd60e51b81526004016102a5906109f2565b6103806000610811565b565b60005460ff16156103c85760405162461bcd60e51b815260206004820152601060248201526f14185d5cd8589b194e881c185d5cd95960821b60448201526064016102a5565b6002600154141561041b5760405162461bcd60e51b815260206004820152601f60248201527f5265656e7472616e637947756172643a207265656e7472616e742063616c6c0060448201526064016102a5565b60026001556005544210156104695760405162461bcd60e51b81526020600482015260146024820152731414ce8814d85b19481b9bdd081cdd185c9d195960621b60448201526064016102a5565b6000816004546104799190610a58565b9050803410156104c25760405162461bcd60e51b815260206004820152601460248201527350533a2053656e742045544820746f6f206c6f7760601b60448201526064016102a5565b600354827f00000000000000000000000000000000000000000000000000000000000000006001600160a01b0316638503df7c6040518163ffffffff1660e01b8152600401602060405180830381865afa158015610524573d6000803e3d6000fd5b505050506040513d601f19601f820116820180604052508101906105489190610a77565b6105529190610a90565b11156105995760405162461bcd60e51b815260206004820152601660248201527550533a205072652d53616c6520736f6c64206f75742160501b60448201526064016102a5565b60005b828110156106a9576040516335313c2160e11b81523360048201527f00000000000000000000000000000000000000000000000000000000000000006001600160a01b031690636a62784290602401600060405180830381600087803b15801561060557600080fd5b505af1158015610619573d6000803e3d6000fd5b50506040516335313c2160e11b81523360048201527f00000000000000000000000000000000000000000000000000000000000000006001600160a01b03169250636a6278429150602401600060405180830381600087803b15801561067e57600080fd5b505af1158015610692573d6000803e3d6000fd5b5050505080806106a190610a3d565b91505061059c565b5060006106b68234610aa8565b905080156106ed57604051339082156108fc029083906000818181858888f193505050501580156106eb573d6000803e3d6000fd5b505b6006546040516001600160a01b039091169083156108fc029084906000818181858888f19350505050158015610727573d6000803e3d6000fd5b5050600180555050565b6002546001600160a01b0316331461075b5760405162461bcd60e51b81526004016102a5906109f2565b60005460ff161561076e57610380610863565b6103806108f6565b6002546001600160a01b031633146107a05760405162461bcd60e51b81526004016102a5906109f2565b6001600160a01b0381166108055760405162461bcd60e51b815260206004820152602660248201527f4f776e61626c653a206e6577206f776e657220697320746865207a65726f206160448201526564647265737360d01b60648201526084016102a5565b61080e81610811565b50565b600280546001600160a01b038381166001600160a01b0319831681179093556040519116919082907f8be0079c531659141344cd1fd0a4f28419497f9722a3daafe3b4186f6b6457e090600090a35050565b60005460ff166108ac5760405162461bcd60e51b815260206004820152601460248201527314185d5cd8589b194e881b9bdd081c185d5cd95960621b60448201526064016102a5565b6000805460ff191690557f5db9ee0a495bf2e6ff9c91a7834c1ba4fdd244a5e8aa4e537bd38aeae4b073aa335b6040516001600160a01b03909116815260200160405180910390a1565b60005460ff161561093c5760405162461bcd60e51b815260206004820152601060248201526f14185d5cd8589b194e881c185d5cd95960821b60448201526064016102a5565b6000805460ff191660011790557f62e78cea01bee320cd4e420270b5ea74000d11b0c9f74754ebdbfc544b05a2586108d93390565b80356001600160a01b038116811461098857600080fd5b919050565b600080604083850312156109a057600080fd5b6109a983610971565b946020939093013593505050565b6000602082840312156109c957600080fd5b5035919050565b6000602082840312156109e257600080fd5b6109eb82610971565b9392505050565b6020808252818101527f4f776e61626c653a2063616c6c6572206973206e6f7420746865206f776e6572604082015260600190565b634e487b7160e01b600052601160045260246000fd5b6000600019821415610a5157610a51610a27565b5060010190565b6000816000190483118215151615610a7257610a72610a27565b500290565b600060208284031215610a8957600080fd5b5051919050565b60008219821115610aa357610aa3610a27565b500190565b600082821015610aba57610aba610a27565b50039056fea2646970667358221220587b218cbf0b972217c9ad843fcf0c6532c4861e548122ab2808381921a206e364736f6c634300080b0033",
  "linkReferences": {},
  "deployedLinkReferences": {}
}